S00D000074657374322E7372656325
S11300000C942A000C9484030C949C040C94B8055E
S11300100C9447000C9447000C9447000C945F0325
S11300200C9447000C9447000C9447000C94470030
S11300300C9447000C9447000C9447000C94470020
S11300400C9447000C9447000C9447000C94470010
S11300500C94470011241FBECFE5D8E0DEBFCDBF0E
S113006011E0A0E6B0E0EAE5FDE102C005900D92E2
S1130070A43EB107D9F722E0A4EEB1E001C01D927D
S1130080AA31B207E1F70E9479080C94AB0E0C94E4
S1130090000080E487B987E886B90895877097B12E
S11300A0987F892B87B986B1806486B93699FECF4B
S11300B084B195B1089580EF8ABB8FEF8BBB8BB36E
S11300C08F708BBB000089B38F70809306028F30D2
S11300D0B1F787E893E10197F1F700C0000089B315
S11300E08F70809306028F30A1F38FE097E201971F
S11300F0F1F700C0000089B38F70809306028F303F
S113010041F38FEE8BBB000089B38F70809306029E
S11301108F3019F01092070227C08FED8BBB0000BF
S113012089B38F70809306028F3021F081E0809331
S113013007021AC08FEB8BBB000089B38F708093CA
S113014006028F3021F082E0809307020DC08FE712
S11301508BBB000089B38F70809306028F3009F443
S1130160AACF83E080930702809106028E3071F457
S1130170E0910702F0E0EE0FFF1FEE0FFF1FEE0FFE
S1130180FF1FE05AFF4F8081918108958D3071F4F3
S1130190E0910702F0E0EE0FFF1FEE0FFF1FEE0FDE
S11301A0FF1FE05AFF4F8281938108958B3071F4D1
S11301B0E0910702F0E0EE0FFF1FEE0FFF1FEE0FBE
S11301C0FF1FE05AFF4F848195810895E091070253
S11301D0F0E0EE0FFF1FEE0FFF1FEE0FFF1FE05AC0
S11301E0FF4F86819781089584B38FEF84BB85B3D5
S11301F08F7085BB08958FEF81BB12BA0895AC014F
S113020020E030E02AC095B39F70906995BB8BEDD8
S113021095E00197F1F700C0000095B39F70906CD2
S113022095BB8BED95E00197F1F700C0000095B305
S11302309F70906695BB8BED95E00197F1F700C038
S1130240000095B39F70906395BB8BED95E001978B
S1130250F1F700C000002F5F3F4F241735079CF2D1
S113026085B38F70806985BB8BED95E00197F1F7BD
S113027000C000000895AC0120E030E02AC095B32E
S11302809F70906395BB8BED95E00197F1F700C0EB
S1130290000095B39F70906695BB8BED95E0019738
S11302A0F1F700C0000095B39F70906C95BB8BED87
S11302B095E00197F1F700C0000095B39F70906935
S11302C095BB8BED95E00197F1F700C000002F5F1F
S11302D03F4F241735079CF285B38F70806985BB27
S11302E08BED95E00197F1F700C000000895AC0193
S11302F020E030E02AC092B39F70906992BB8BEDEE
S113030095E00197F1F700C0000092B39F70906CE4
S113031092BB8BED95E00197F1F700C0000092B31A
S11303209F70906692BB8BED95E00197F1F700C04A
S1130330000092B39F70906392BB8BED95E00197A0
S1130340F1F700C000002F5F3F4F241735079CF2E0
S113035082B38F70806982BB8BED95E00197F1F7D2
S113036000C000000895AC0120E030E02AC092B340
S11303709F70906392BB8BED95E00197F1F700C0FD
S1130380000092B39F70906692BB8BED95E001974D
S1130390F1F700C0000092B39F70906C92BB8BED9C
S11303A095E00197F1F700C0000092B39F70906947
S11303B092BB8BED95E00197F1F700C000002F5F31
S11303C03F4F241735079CF282B38F70806982BB3C
S11303D08BED95E00197F1F700C00000089581B31B
S11303E0836081BB82B382BB82B382BB089582B334
S11303F08C7F82BB089522B3216022BB07C089EFA2
S113040090E00197F1F700C00000C9019C01215060
S11304103109892BA1F70E94F701089522B32260C4
S113042022BB07C089EF90E00197F1F700C00000FC
S1130430C9019C0121503109892BA1F70E94F701C0
S113044008950E94EF0184EC99E00E940E0284EC6E
S113045099E00E94FB010E94F701089584B388602B
S113046084BB85B3877F85BB85B3886085BB0895CE
S113047084B3886084BB85B3877F85BB85B3877F5E
S113048085BB089587B3826087BB089580EF84BBE2
S11304908FE085BB08950E9446029A9BFECF81E0BF
S11304A090E008951FBC89B7806189BF8EB58560CF
S11304B08EBD87E090E09BBD8ABD0895CF92DF9208
S11304C0EF92FF920F931F9388B3806288BB0E94C0
S11304D0520281B38B7F81BB8FEF82BB81B38B7F51
S11304E081BB80E48BBF83E085BF7894C8C08091D2
S11304F0EE019091EF01A091F001B091F1014091D2
S1130500F8015091F9016091FA017091FB01841B8B
S1130510950BA60BB70B883E9340A105B10508F4D3
S1130520AEC08091EA019091EB01A091EC01B091F1
S1130530ED010196A11DB11D8093EA019093EB0199
S1130540A093EC01B093ED018091EA019091EB014D
S1130550A091EC01B091ED010197A105B10509F05D
S11305608EC0F8948091EE019091EF01A091F0017A
S1130570B091F1010091F8011091F9012091FA0173
S11305803091FB01BC01CD01601B710B820B930BFD
S11305900E94510A9B01AC0160E070E08AE794E498
S11305A00E94A9096B017C01609100027091010213
S11305B080E090E00E94510AA70196010E94E40A9B
S11305C020918000309181004091820050918300FD
S11305D00E94A909609302027093030280930402AB
S11305E0909305020091EE011091EF012091F0012A
S11305F03091F1010093F8011093F9012093FA016D
S11306003093FB0120E030E040E752E40E94A90966
S113061020E030E04AE754E40E94E40A0E94220AFF
S11306207093F7016093F6012091F2013091F30188
S11306304091F4015091F501DA01C901860F971F29
S1130640A11DB11D8093F2019093F301A093F401D5
S1130650B093F5011092EE011092EF011092F001A7
S11306601092F1011092EA011092EB011092EC0148
S11306701092ED0110920102109200027894809180
S1130680120290911302092E000CAA0BBB0B40918D
S1130690F2015091F3016091F4017091F501841716
S11306A09507A607B70709F022CF88B38F7D88BBCB
S11306B01F910F91FF90EF90DF90CF9008951F92BC
S11306C00F920FB60F9211248F939F93AF93BF9302
S11306D08091EE019091EF01A091F001B091F101B0
S11306E00196A11DB11D8093EE019093EF01A0939B
S11306F0F001B093F101BF91AF919F918F910F9051
S11307000FBE0F901F9018951F920F920FB60F9265
S113071011248F939F93809100029091010201967E
S113072090930102809300029F918F910F900FBECE
S11307300F901F901895CF92DF92EF92FF920F9334
S11307401F9388B3806488BB0E94520281B38B7F5D
S113075081BB8FEF82BB81B3877F81BB80E88BBF76
S11307608CE085BF7894C8C08091EE019091EF0130
S1130770A091F001B091F1014091F8015091F9017B
S11307806091FA017091FB01841B950BA60BB70BCA
S1130790883E9340A105B10508F4AEC08091EA01FA
S11307A09091EB01A091EC01B091ED010196A11D96
S11307B0B11D8093EA019093EB01A093EC01B093F7
S11307C0ED018091EA019091EB01A091EC01B091CF
S11307D0ED010197A105B10509F08EC0F89480914F
S11307E0EE019091EF01A091F001B091F10100911F
S11307F0F8011091F9012091FA013091FB01BC013B
S1130800CD01601B710B820B930B0E94510A9B015B
S1130810AC0160E070E08AE794E40E94A9096B01EE
S11308207C016091FE017091FF0180E090E00E94E4
S1130830510AA70196010E94E40A20918000309198
S1130840810040918200509183000E94A909609325
S113085002027093030280930402909305020091B4
S1130860EE011091EF012091F0013091F10100931C
S1130870F8011093F9012093FA013093FB0120E071
S113088030E040E752E40E94A90920E030E04AE762
S113089054E40E94E40A0E94220A7093F7016093D0
S11308A0F6012091F2013091F3014091F40150914D
S11308B0F501DA01C901860F971FA11DB11D8093AF
S11308C0F2019093F301A093F401B093F501109217
S11308D0EE011092EF011092F0011092F1011092CA
S11308E0EA011092EB011092EC011092ED011092CA
S11308F0FF011092FE01789480910E0290910F02F4
S1130900092E000CAA0BBB0B4091F2015091F3018C
S11309106091F4017091F50184179507A607B70754
S113092009F022CF88B38F7B88BB1F910F91FF9072
S1130930EF90DF90CF9008951F920F920FB60F9211
S113094011248F939F938091FE019091FF01019652
S11309509093FF018093FE019F918F910F900FBEA2
S11309600F901F901895CF92DF92EF92FF920F9302
S11309701F9388B388BB88B388BB88B3806888BB5F
S11309800E94520287B38B7F87BB8FEF88BB87B3EC
S11309908B7F87BB80E28BBF80E485BF7894C8C01F
S11309A08091EE019091EF01A091F001B091F101DD
S11309B04091F8015091F9016091FA017091FB01A5
S11309C0841B950BA60BB70B883E9340A105B1057C
S11309D008F4AEC08091EA019091EB01A091EC0182
S11309E0B091ED010196A11DB11D8093EA01909390
S11309F0EB01A093EC01B093ED018091EA01909199
S1130A00EB01A091EC01B091ED010197A105B105B5
S1130A1009F08EC0F8948091EE019091EF01A091BD
S1130A20F001B091F1010091F8011091F9012091C8
S1130A30FA013091FB01BC01CD01601B710B820BEB
S1130A40930B0E94510A9B01AC0160E070E08AE7BD
S1130A5094E40E94A9096B017C016091FC017091EE
S1130A60FD0180E090E00E94510AA70196010E94D6
S1130A70E40A2091800030918100409182005091DD
S1130A8083000E94A9096093020270930302809379
S1130A900402909305020091EE011091EF01209160
S1130AA0F0013091F1010093F8011093F9012093C2
S1130AB0FA013093FB0120E030E040E752E40E9469
S1130AC0A90920E030E04AE754E40E94E40A0E94C5
S1130AD0220A7093F7016093F6012091F20130919C
S1130AE0F3014091F4015091F501DA01C901860F37
S1130AF0971FA11DB11D8093F2019093F301A09360
S1130B00F401B093F5011092EE011092EF011092EE
S1130B10F0011092F1011092EA011092EB0110928F
S1130B20EC011092ED011092FD011092FC017894F9
S1130B308091100290911102092E000CAA0BBB0B9C
S1130B404091F2015091F3016091F4017091F5012B
S1130B5084179507A607B70709F022CF88B38F77C4
S1130B6088BB1F910F91FF90EF90DF90CF90089575
S1130B701F920F920FB60F9211248F939F9380911F
S1130B80FC019091FD0101969093FD018093FC017D
S1130B909F918F910F900FBE0F901F90189582E632
S1130BA080B984E086BF11B8089584EA86BF06B68A
S1130BB007FEFDCF089583B984E886BF06B607FE15
S1130BC0FDCF089540E050E00AC02F5F3F4F02C0C0
S1130BD020E030E029373105C4F34F5F5F4F8417BD
S1130BE09507B4F7089583B1826083B984E886BF1A
S1130BF006B607FEFDCF81E090E00E94E20583B1D6
S1130C008D7F83B984E886BF06B607FEFDCF0895BD
S1130C1093B19E7F93B994E896BF06B607FEFDCFC5
S1130C2093B19F7093B994E896BF06B607FEFDCFC3
S1130C3093B1807F892B83B984E886BF06B607FE0B
S1130C40FDCF0E94F3050895CF93C82F83B18E7F03
S1130C5083B984E886BF06B607FEFDCF83B18F70E3
S1130C6083B984E886BF06B607FEFDCF83B19C2F07
S1130C70907F892B83B984E886BF06B607FEFDCF33
S1130C800E94F30583B18F7083B984E886BF06B6EA
S1130C9007FEFDCF23B130E1C39FC0011124822B95
S1130CA083B984E886BF06B607FEFDCF0E94F3052C
S1130CB0CF91089580E30E94080680E30E9408060D
S1130CC080E20E94080688E20E9424068CE00E94CA
S1130CD0240681E00E94240686E00E94240680E81F
S1130CE00E9424060895CF93C82F83B1816083B9ED
S1130CF084E886BF06B607FEFDCF83B18F7083B943
S1130D0084E886BF06B607FEFDCF83B19C2F907F93
S1130D10892B83B984E886BF06B607FEFDCF0E94FF
S1130D20F30583B18F7083B984E886BF06B607FEE6
S1130D30FDCF23B130E1C39FC0011124822B83B9BD
S1130D4084E886BF06B607FEFDCF0E94F305CF9167
S1130D500895CF93DF93EC0103C021960E9473069C
S1130D6088818111FACFDF91CF910895CF93DF93DA
S1130D700E94CF050E94D50580E70E94DB050E94F2
S1130D805A0680E80E94240682EA90E00E94A9069E
S1130D9080EC0E94240684E10E94240684E10E94DF
S1130DA0240684E10E94240684E10E9424068CEB3C
S1130DB090E00E94A9062FE986E891E02150804046
S1130DC09040E1F700C00000C0E0D0E00AC088E134
S1130DD00E94240687EA91E60197F1F700C000001B
S1130DE02196CB31D1059CF3DF91CF910895EF92F9
S1130DF0FF920F931F93CF93DF93CDB7DEB7649722
S1130E000FB6F894DEBF0FBECDBF81E00E9424066A
S1130E1080E80E94240684EC90E00E94A90680ECFD
S1130E200E9424068FE00E94240600E010E00E9445
S1130E305B00BC01CE0101960E949C0B6EE970E040
S1130E40CE0101960E94930B892B01F51016110611
S1130E5074F580E10E9424068CE990E00E94A906C2
S1130E6080E10E94240680E10E94240684E10E941D
S1130E70240601501109EBE0F0E0EC0FFD1FE00F38
S1130E80F11F80E290E09183808311C0CE0101962E
S1130E900E94A906BE016F5F7F4F8BE090E08C0F2C
S1130EA09D1F800F911F0E949C0B0F5F1F4F6CE9C9
S1130EB070E0CE0101960E94930B7C01CE010B964B
S1130EC00E94750BAC0121E0EF2809F420E091E0C9
S1130ED04115510509F090E0922B09F0A8CF5093E9
S1130EE0E9014093E80181E00E94240680E80E9421
S1130EF024068091E8019091E90184319105FCF088
S1130F0085ED90E00E94A9062FE986E891E0215042
S1130F1080409040E1F700C0000000E010E00BC00A
S1130F2088E10E94240687EA91E60197F1F700C060
S1130F3000000F5F1F4F0B31110594F366CF6496C9
S1130F400FB6F894DEBF0FBECDBFDF91CF911F91D6
S1130F500F91FF90EF900895CF92DF92EF92FF925E
S1130F600F931F93CF93DF93CDB7DEB764970FB67C
S1130F70F894DEBF0FBECDBF80EF90E00E94A906BB
S1130F8080EC0E9424068FE00E94240600E010E01A
S1130F900E945B00BC01CE0101960E949C0B6EE98D
S1130FA070E0CE0101960E94930B892B01F5101677
S1130FB0110674F580E10E9424068CE990E00E94F9
S1130FC0A90680E10E94240680E10E94240684E1AF
S1130FD00E94240601501109EBE0F0E0EC0FFD1F24
S1130FE0E00FF11F80E290E09183808311C0CE0175
S1130FF001960E94A906BE016F5F7F4F8BE090E0CF
S11310008C0F9D1F800F911F0E949C0B0F5F1F4F21
S11310106CE970E0CE0101960E94930B7C01CE0135
S11310200B960E94750BBC0121E0EF2809F420E027
S113103091E06115710509F090E0922B09F0A8CFB9
S1131040072E000C880B990B0E94530A6093E4014D
S11310507093E5018093E6019093E70181E00E949B
S1131060240680E80E942406C090E401D090E501A3
S1131070E090E601F090E70120E030E44CE955E42B
S1131080C701B6010E94DF0A8823FCF082E091E0E8
S11310900E94A9062FE986E891E021508040904003
S11310A0E1F700C0000000E010E00BC088E10E94FE
S11310B0240687EA91E60197F1F700C000000F5F6C
S11310C01F4F0C31110594F357CFC701B6010E948D
S11310D01B0ACB0164960FB6F894DEBF0FBECDBFDA
S11310E0DF91CF911F910F91FF90EF90DF90CF9000
S11310F008950F931F93CF93DF93CDB7DEB72A974D
S11311000FB6F894DEBF0FBECDBF0E94B6060E9494
S1131110F7068C010E94AC070BC10E9442020E9498
S1131120490083E00E944E0090930D0280930C02CC
S1131130BC01990F880B990B0E94530A20E030E000
S113114040E65CE30E94E40A262F372F462F572FF0
S1131150682F792F409308025093090260930A0282
S113116070930B029F938F933F932F9381E591E0AC
S11311709F938F930E94AB0B80910B028F9380916E
S11311800A028F93809109028F93809108028F93B2
S113119084E591E09F938F93CE0101969F938F9363
S11311A00E94C10B81E00E94240680E80E9424066C
S11311B08AE591E00E94A9060E942E0281E00E9425
S11311C0240680E80E94240688E691E00E94A9068D
S11311D00E94F40084E690E00E94FF0081E00E94F7
S11311E0240680E80E94240687E791E00E94A9066D
S11311F00FB6F894DEBF0FBECDBF0E944B02892B01
S1131200E1F380E80E94240686E891E00E94A906A2
S113121080EC0E9424060E94380281E00E94240689
S113122080E80E94240686E991E00E94A9060E94B3
S1131230F40084E690E00E943B0181E00E942406D1
S113124080E80E94240683EA91E00E94A9060E9495
S1131250FB0084E690E00E94770181E00E9424066E
S113126080E80E94240681EB91E00E94A9060E9476
S11312705E020E949B030E94B30481E00E94240644
S113128080E80E9424068CEB91E00E94A9060E944B
S1131290210281E00E94240680E80E94240687EC53
S11312A091E00E94A9060E94FB0084E690E00E945F
S11312B0B30181E00E94240680E80E9424068AE5A6
S11312C091E00E94A9060E942E02015011099FE399
S11312D022E48FE0915020408040E1F700C00000FC
S11312E081E00E94240680E80E94240686E891E0BA
S11312F00E94A9060E9438029FE72AE186E09150E5
S113130020408040E1F700C0000081E00E942406F4
S113131080E80E94240685ED91E00E94A9069FE7DB
S11313202AE186E0915020408040E1F700C00000AF
S1131330101611060CF4F1CE80E090E02A960FB658
S1131340F894DEBF0FBECDBFDF91CF911F910F91F7
S113135008950E94BD090C94A50A0E949E0A58F0A3
S11313600E94970A40F029F45F3F29F00C948E0AFA
S113137051110C94D90A0C94940A0E94B60A68F389
S11313809923B1F3552391F3951B550BBB27AA273A
S113139062177307840738F09F5F5F4F220F331F74
S11313A0441FAA1FA9F335D00E2E3AF0E0E832D03C
S11313B091505040E695001CCAF72BD0FE2F29D03F
S11313C0660F771F881FBB1F261737074807AB0711
S11313D0B0E809F0BB0B802DBF01FF2793585F4F86
S11313E03AF09E3F510578F00C948E0A0C94D90A79
S11313F05F3FE4F3983ED4F3869577956795B79568
S1131400F7959F5FC9F7880F911D9695879597F972
S11314100895E1E0660F771F881FBB1F62177307EB
S11314208407BA0720F0621B730B840BBA0BEE1F00
S113143088F7E09508950E94220A6894B1110C94EB
S1131440D90A08950E94BE0A88F09F5798F0B92FD0
S11314509927B751B0F0E1F0660F771F881F991FE5
S11314601AF0BA95C9F714C0B13091F00E94D80AA5
S1131470B1E008950C94D80A672F782F8827B85FB5
S113148039F0B93FCCF3869577956795B395D9F73D
S11314903EF490958095709561957F4F8F4F9F4F47
S11314A00895E89409C097FB3EF490958095709553
S11314B061957F4F8F4F9F4F9923A9F0F92F96E99C
S11314C0BB279395F695879577956795B795F11111
S11314D0F8CFFAF4BB0F11F460FF1BC06F5F7F4FAE
S11314E08F4F9F4F16C0882311F096E911C07723C0
S11314F021F09EE8872F762F05C0662371F096E8C9
S1131500862F70E060E02AF09A95660F771F881F97
S1131510DAF7880F9695879597F9089597F99F6755
S113152080E870E060E008959FEF80EC0895002467
S11315300A941616170618060906089500240A9434
S113154012161306140605060895092E0394000CBA
S113155011F4882352F0BB0F40F4BF2B11F460FF49
S113156004C06F5F7F4F8F4F9F4F089557FD905872
S1131570440F551F59F05F3F71F04795880F97FB53
S1131580991F61F09F3F79F087950895121613060D
S11315901406551FF2CF4695F1DF08C0161617063C
S11315A01806991FF1CF8695710561050894089571
S11315B0E894BB2766277727CB0197F908950E9403
S11315C0510B08F48FEF08950E94F70A0C94A50AB2
S11315D00E94970A38F00E949E0A20F0952311F089
S11315E00C948E0A0C94940A11240C94D90A0E9427
S11315F0B60A70F3959FC1F3950F50E0551F629F93
S1131600F001729FBB27F00DB11D639FAA27F00D57
S1131610B11DAA1F649F6627B00DA11D661F829F7E
S11316202227B00DA11D621F739FB00DA11D621F63
S1131630839FA00D611D221F749F3327A00D611D80
S1131640231F849F600D211D822F762F6A2F112462
S11316509F5750409AF0F1F088234AF0EE0FFF1F95
S1131660BB1F661F771F881F91505040A9F79E3FEC
S1131670510580F00C948E0A0C94D90A5F3FE4F370
S1131680983ED4F3869577956795B795F795E79542
S11316909F5FC1F7FE2B880F911D9695879597F94B
S11316A00895990F0008550FAA0BE0E8FEEF1616EF
S11316B01706E807F907C0F012161306E407F50742
S11316C098F0621B730B840B950B39F40A2661F0B6
S11316D0232B242B252B21F408950A2609F4A14059
S11316E0A6958FEF811D811D0895FC0188279927F8
S11316F0E89421912032E9F3293010F02E30C8F318
S11317002B3241F02D3239F4689404C00E94A30BAB
S1131710820F911D219120532A30C0F31EF490951D
S113172081959F4F0895FB01DC018D9101908019F3
S11317300110D9F3990B0895FB01DC0101900D927E
S11317400020E1F708957AE0979F902D879F802DE0
S1131750910D11240895A0E0B0E0E1EBFBE00C94BE
S1131760840EAE014B5F5F4FFA0161917191AF013D
S113177080911602909117020E94E30BE2E00C9410
S1131780A00EAEE0B0E0E7ECFBE00C94820E0D8915
S11317901E8986E08C831A8309838FEF9FE79E83DB
S11317A08D83AE01475E5F4F6F89788DCE010196C0
S11317B00E94E30BEF81F885E00FF11F10822E9653
S11317C0E4E00C949E0EABE0B0E0E9EEFBE00C9498
S11317D0740E6C017B018A01FC01178216828381DD
S11317E081FFCCC1CE0101963C01F6019381F70142
S11317F093FD859193FF81917F01882309F4BAC1F8
S1131800853239F493FD859193FF81917F0185326F
S113181029F4B60190E00E94DA0DE7CF912C212C37
S1131820312CFFE1F315D8F08B3279F038F48032A3
S113183079F08332A1F4232D20611DC08D3261F033
S1131840803369F4232D216016C0832D8260382EE5
S1131850E32DE4603E2E2AC0F32DF8601DC037FC52
S11318602DC020ED280F2A3040F08E32B9F436FC1A
S113187081C1232D2064322E19C036FE06C08AE0B1
S1131880989E200D1124922E11C0EAE02E9E200D68
S11318901124222EF32DF0623F2E08C08C3621F441
S11318A0832D8068382E02C0883641F4F70193FDF9
S11318B0859193FF81917F018111B3CF982F9F7DF3
S11318C09554933028F40C5F1F4F9FE399830DC008
S11318D0833631F0833771F0833509F059C021C064
S11318E0F801808189830E5F1F4F88248394912C93
S11318F0530113C02801F2E04F0E511CF801A080DF
S1131900B18036FE03C0692D70E002C06FEF7FEF37
S1131910C5010E94CF0D4C018201F32DFF773F2EAC
S113192016C0280122E0420E511CF801A080B180AB
S113193036FE03C0692D70E002C06FEF7FEFC50172
S11319400E94C40D4C01F32DF0683F2E820133FC3C
S11319501BC0822D90E088169906B0F4B60180E28F
S113196090E00E94DA0D2A94F4CFF50137FC8591BA
S113197037FE81915F01B60190E00E94DA0D2110DB
S11319802A9421E0821A91088114910471F7E8C025
S1131990843611F0893641F5F80137FE07C06081BD
S11319A07181828193810C5F1F4F08C060817181B6
S11319B0072E000C880B990B0E5F1F4FF32DFF763B
S11319C03F2E97FF09C090958095709561957F4F44
S11319D08F4F9F4FF0683F2E2AE030E0A3010E9412
S11319E0160E882E861845C0853731F4232D2F7E98
S11319F0B22E2AE030E025C0932D997FB92E8F3680
S1131A00C1F018F4883579F0B5C0803719F08837FB
S1131A1021F0B0C0E92FE061BE2EB4FE0DC0FB2D55
S1131A20F460BF2E09C034FE0AC0292F2660B22EEE
S1131A3006C028E030E005C020E130E002C020E12B
S1131A4032E0F801B7FE07C0608171818281938121
S1131A500C5F1F4F06C06081718180E090E00E5FD3
S1131A601F4FA3010E94160E882E8618FB2DFF77A8
S1131A703F2E36FE0DC0232D2E7FA22E891458F43E
S1131A8034FE0BC032FC09C0832D8E7EA82E05C007
S1131A90B82CA32C03C0B82C01C0B92CA4FE0FC0D1
S1131AA0FE01E80DF11D8081803321F49A2D997E89
S1131AB0A92E09C0A2FE06C0B394B39404C08A2D13
S1131AC0867809F0B394A3FC11C0A0FE06C0B2143A
S1131AD088F4280C922C9B180EC0B21460F4B60142
S1131AE080E290E00E94DA0DB394F7CFB21418F4B8
S1131AF02B1802C0982C212CA4FE10C0B60180E340
S1131B0090E00E94DA0DA2FE17C0A1FC03C088E792
S1131B1090E002C088E590E0B6010CC08A2D86787A
S1131B2059F0A1FE02C08BE201C080E2A7FC8DE265
S1131B30B60190E00E94DA0D891438F4B60180E30E
S1131B4090E00E94DA0D9A94F7CF8A94F301E80D9D
S1131B50F11D8081B60190E00E94DA0D8110F5CF6D
S1131B60222009F442CEB60180E290E00E94DA0D10
S1131B702A94F6CFF6018681978102C08FEF9FEFFA
S1131B802B96E2E10C94900EFC010590615070409C
S1131B900110D8F7809590958E0F9F1F0895FC0132
S1131BA06150704001900110D8F7809590958E0F88
S1131BB09F1F08950F931F93CF93DF93FB012381FE
S1131BC021FD03C08FEF9FEF2CC022FF16C046817A
S1131BD05781248135814217530744F4A081B18190
S1131BE09D012F5F3F4F318320838C932681378162
S1131BF02F5F3F4F3783268314C08B01EC01FB0119
S1131C000084F185E02D0995892BE1F6D80116961B
S1131C108D919C911797019617969C938E93169786
S1131C20CE01DF91CF911F910F910895FA01AA2758
S1131C30283051F1203181F1E8946F936E7F6E5F0B
S1131C407F4F8F4F9F4FAF4FB1E03ED0B4E03CD0B9
S1131C50670F781F891F9A1FA11D680F791F8A1F9C
S1131C60911DA11D6A0F711D811D911DA11D20D003
S1131C7009F468943F912AE0269F11243019305DBD
S1131C803193DEF6CF010895462F4770405D4193AE
S1131C90B3E00FD0C9F7F6CF462F4F70405D4A33FB
S1131CA018F0495D31FD4052419302D0A9F7EACFC3
S1131CB0B4E0A6959795879577956795BA95C9F7F2
S1131CC000976105710508959B01AC010A2E0694E5
S1131CD05795479537952795BA95C9F7620F731F9E
S1131CE0841F951FA01D08952F923F924F925F92DB
S1131CF06F927F928F929F92AF92BF92CF92DF9218
S1131D00EF92FF920F931F93CF93DF93CDB7DEB77C
S1131D10CA1BDB0B0FB6F894DEBF0FBECDBF099410
S1131D202A88398848885F846E847D848C849B8467
S1131D30AA84B984C884DF80EE80FD800C811B8175
S1131D40AA81B981CE0FD11D0FB6F894DEBF0FBEA4
S10D1D50CDBFED010895F894FFCF14
S1131D5A8400860088008A008C008E00900092001D
S1131D6A9400960098009A009C00BA009E00A00075
S1131D7A000090403700380039002E003400350046
S1131D8A360078003100320033002D0020003D0077
S1131D9A2B0052756262657220536F6C7574696F99
S1131DAA6E204D6978657220312E300057656C6358
S1131DBA6F6D65004E756D626572206F6620547290
S1131DCA6179733F00456E74657220612076616C97
S1131DDA7565206C657373207468616E20323000F7
S1131DEA566F6C2E6F6620612054726179286D6C6F
S1131DFA2900456E74657220612076616C756520D0
S1131E0A6C657373207468616E2035303030005706
S1131E1A61746572204C6576656C204C6F7721007D
S1131E2A41636964204C6576656C204C6F772100A8
S1131E3A4C61746578204C6576656C204C6F77210B
S1131E4A0025660025322E326600416376742043EB
S1131E5A6F6E7665796F720041637674207472616D
S1131E6A792070757368004163767420495220732F
S1131E7A656E736F720044616374767420436F6E87
S1131E8A7665796F72006261636B2074727920706F
S1131E9A736800416376742073747072206D78726B
S1131EAA00416376742070756D70730041637674B3
S1131EBA206D697865720041637674206D6978656E
S1131ECA7220557000456E64206F662070726F67C9
S1071EDA72616D00C0
S9030000FC
