S00D000074657374322E7372656325
S11300000C9457000C94BA010C94D2020C94E204A0
S11300100C9474000C9474000C9474000C9495016A
S11300200C9474000C94C7040C9474000C94740025
S11300300C9474000C9474000C9474000C9474006C
S11300400C9474000C9474000C9474000C9474005C
S11300500C94740008000000BE922449123EABAA1E
S1130060AA2ABECDCCCC4C3E00000080BEABAAAACE
S1130070AA3E00000000BF000000803F0000000016
S113008000084178D3BB4387D1133D190E3CC3BD4F
S11300904282AD2B3E68EC8276BED98FE1A93E4CFC
S11300A080EFFFBE01C4FF7F3F0000000000112469
S11300B01FBECFE5D8E0DEBFCDBF11E0A0E6B0E0C3
S11300C0E2EBFBE102C005900D92A43BB107D9F726
S11300D021E0A4EBB1E001C01D92AA3EB207E1F712
S11300E00E94C0090C94D70D0C94000080E487B9D9
S11300F087E886B90895877097B1987F892B87B967
S113010086B1806486B93699FECF84B195B10895DD
S11301101FBC89B7806189BF8EB585608EBD87E0BD
S113012090E09BBD8ABD0895CF92DF92EF92FF923B
S11301300F931F9388B3806288BB0E94880081B3A9
S11301408B7F81BB8FEF82BB81B38B7F81BB80E4CC
S11301508BBF83E085BF7894C8C08091C001909123
S1130160C101A091C201B091C3014091CA01509153
S1130170CB016091CC017091CD01841B950BA60B32
S1130180B70B883E9340A105B10508F4AEC0809139
S1130190BC019091BD01A091BE01B091BF01019637
S11301A0A11DB11D8093BC019093BD01A093BE011C
S11301B0B093BF018091BC019091BD01A091BE019B
S11301C0B091BF010197A105B10509F08EC0F89463
S11301D08091C0019091C101A091C201B091C3016D
S11301E00091CA011091CB012091CC013091CD0135
S11301F0BC01CD01601B710B820B930B0E94F00BB1
S11302009B01AC0160E070E08AE794E40E94480B33
S11302106B017C016091D2017091D30180E090E088
S11302200E94F00BA70196010E94DB0C2091640050
S11302303091650040916600509167000E94480B20
S11302406093D4017093D5018093D6019093D70124
S11302500091C0011091C1012091C2013091C301EC
S11302600093CA011093CB012093CC013093CD01AC
S113027020E030E040E752E40E94480B20E030E008
S11302804AE754E40E94DB0C0E94C10B7093C9013D
S11302906093C8012091C4013091C5014091C60109
S11302A05091C701DA01C901860F971FA11DB11D25
S11302B08093C4019093C501A093C601B093C70174
S11302C01092C0011092C1011092C2011092C30198
S11302D01092BC011092BD011092BE011092BF0198
S11302E01092D3011092D20178948091620090917F
S11302F06300092E000CAA0BBB0B4091C401509162
S1130300C5016091C6017091C70184179507A607BE
S1130310B70709F022CF88B38F7D88BB1F910F9157
S1130320FF90EF90DF90CF9008951F920F920FB639
S11303300F9211248F939F93AF93BF938091C00129
S11303409091C101A091C201B091C3010196A11D78
S1130350B11D8093C0019093C101A093C201B093D9
S1130360C301BF91AF919F918F910F900FBE0F90DA
S11303701F9018951F920F920FB60F9211248F930E
S11303809F938091D2019091D30101969093D301D0
S11303908093D2019F918F910F900FBE0F901F9069
S11303A01895CF92DF92EF92FF920F931F9388B329
S11303B0806488BB0E94880081B38B7F81BB8FEFF0
S11303C082BB81B3877F81BB80E88BBF8CE085BF14
S11303D07894C8C08091C0019091C101A091C201DC
S11303E0B091C3014091CA015091CB016091CC01FD
S11303F07091CD01841B950BA60BB70B883E9340DF
S1130400A105B10508F4AEC08091BC019091BD0175
S1130410A091BE01B091BF010196A11DB11D8093B1
S1130420BC019093BD01A093BE01B093BF01809124
S1130430BC019091BD01A091BE01B091BF01019793
S1130440A105B10509F08EC0F8948091C001909186
S1130450C101A091C201B091C3010091CA011091E0
S1130460CB012091CC013091CD01BC01CD01601BA9
S1130470710B820B930B0E94F00B9B01AC0160E0AB
S113048070E08AE794E40E94480B6B017C01609160
S1130490D0017091D10180E090E00E94F00BA7019F
S11304A096010E94DB0C209164003091650040911C
S11304B06600509167000E94480B6093D4017093CA
S11304C0D5018093D6019093D7010091C00110917A
S11304D0C1012091C2013091C3010093CA0110935C
S11304E0CB012093CC013093CD0120E030E040E7F4
S11304F052E40E94480B20E030E04AE754E40E94B2
S1130500DB0C0E94C10B7093C9016093C801209158
S1130510C4013091C5014091C6015091C701DA016F
S1130520C901860F971FA11DB11D8093C40190932B
S1130530C501A093C601B093C7011092C0011092E7
S1130540C1011092C2011092C3011092BC01109219
S1130550BD011092BE011092BF011092D101109200
S1130560D00178948091600090916100092E000C74
S1130570AA0BBB0B4091C4015091C5016091C60107
S11305807091C70184179507A607B70709F022CF12
S113059088B38F7B88BB1F910F91FF90EF90DF9002
S11305A0CF9008951F920F920FB60F9211248F933C
S11305B09F938091D0019091D10101969093D101A4
S11305C08093D0019F918F910F900FBE0F901F9039
S11305D01895CF92DF92EF92FF920F931F9390930F
S11305E0DF018093DE0188B388BB88B388BB88B3FE
S11305F0806888BB0E94880087B38B7F87BB8FEF9E
S113060088BB87B38B7F87BB80E28BBF80E485BFC9
S11306107894C8C08091C0019091C101A091C20199
S1130620B091C3014091CA015091CB016091CC01BA
S11306307091CD01841B950BA60BB70B883E93409C
S1130640A105B10508F4AEC08091BC019091BD0133
S1130650A091BE01B091BF010196A11DB11D80936F
S1130660BC019093BD01A093BE01B093BF018091E2
S1130670BC019091BD01A091BE01B091BF01019751
S1130680A105B10509F08EC0F8948091C001909144
S1130690C101A091C201B091C3010091CA0110919E
S11306A0CB012091CC013091CD01BC01CD01601B67
S11306B0710B820B930B0E94F00B9B01AC0160E069
S11306C070E08AE794E40E94480B6B017C0160911E
S11306D0CE017091CF0180E090E00E94F00BA70161
S11306E096010E94DB0C20916400309165004091DA
S11306F06600509167000E94480B6093D401709388
S1130700D5018093D6019093D7010091C001109137
S1130710C1012091C2013091C3010093CA01109319
S1130720CB012093CC013093CD0120E030E040E7B1
S113073052E40E94480B20E030E04AE754E40E946F
S1130740DB0C0E94C10B7093C9016093C801209116
S1130750C4013091C5014091C6015091C701DA012D
S1130760C901860F971FA11DB11D8093C4019093E9
S1130770C501A093C601B093C7011092C0011092A5
S1130780C1011092C2011092C3011092BC011092D7
S1130790BD011092BE011092BF011092CF011092C0
S11307A0CE0178948091DE019091DF01092E000C36
S11307B0AA0BBB0B4091C4015091C5016091C601C5
S11307C07091C70184179507A607B70709F022CFD0
S11307D088B38F7788BB1F910F91FF90EF90DF90C4
S11307E0CF90089587B3826087BB87B38B7F87BB25
S11307F088B38B7F88BB87B3886087BB87B38061EE
S113080087BB83ED90E30197F1F700C0000084B744
S1130810806484BF8AB78F7D8ABF8BB780628BBFA9
S113082089B7846089BF7894089588B3826088BB4F
S113083085E08A95F1F788B38D7F88BB85E08A953A
S1130840F1F708952FE030E03093DF012093DE01CB
S113085020E030E048E452E40E947E0C181614F4C0
S113086081E0089580E008958CE090E09093630027
S11308708093620088B3877F88BB88B38F7E88BBF0
S11308800E9415046091BA017091BB0180E090E070
S11308900E94F00B20E034E244E759E40E94DB0CB0
S11308A020E034E244E759E40E94480B20E030E0C1
S11308B048E652E40E94480B6093B4017093B5017A
S11308C08093B6019093B7012DE030E0309363003C
S11308D0209362000E942204089588B3886088BB34
S11308E088B38F7E88BB0E9415046091BA01709111
S11308F0BB0180E090E00E94F00B20E034E244E78A
S113090059E40E94DB0C20E034E244E759E40E94FD
S1130910480B20E030E048E652E40E94480B609324
S1130920B4017093B5018093B6019093B7010E940E
S11309302204089588B3877F88BB88B3806188BB0D
S11309400E9415046091BA017091BB0180E090E0AF
S11309500E94F00B20E034E244E759E40E94DB0CEF
S113096020E034E244E759E40E94480B20E030E000
S113097048E652E40E94480B6093B4017093B501B9
S11309808093B6019093B7010E94220408951F92A8
S11309900F920FB60F9211248F939F931EBC88EC75
S11309A090E09093BB018093BA011DBC1CBC1092D3
S11309B0B9011092B8019F918F910F900FBE0F90C3
S11309C01F9018951F920F920FB60F9211248F93B8
S11309D09F938BB78F7D8BBF94B780E4892784BFA7
S11309E08AB78F7D8ABF8BB780628BBF8091CE011F
S11309F09091CF0101969093CF018093CE01809185
S1130A00B8019091B901892B51F48EB581608EBDE6
S1130A1081E090E09093B9018093B8010DC01EBCB1
S1130A208CB59DB59093BB018093BA011DBC1CBCD1
S1130A301092B9011092B8019F918F910F900FBE3F
S1130A400F901F90189580EF8ABB8FEF8BBB8BB3F1
S1130A508F708BBB000089B38F708093E0018F305F
S1130A60B1F787E893E10197F1F700C0000089B37B
S1130A708F708093E0018F30A1F38FE097E20197AC
S1130A80F1F700C0000089B38F708093E0018F30CC
S1130A9041F38FEE8BBB000089B38F708093E0012C
S1130AA08F3019F01092E10127C08FED8BBB00004D
S1130AB089B38F708093E0018F3021F081E08093BF
S1130AC0E1011AC08FEB8BBB000089B38F70809358
S1130AD0E0018F3021F082E08093E1010DC08FE7C7
S1130AE08BBB000089B38F708093E0018F3009F4D1
S1130AF0AACF83E08093E1018091E0018E3071F40C
S1130B00E091E101F0E0EE0FFF1FEE0FFF1FEE0F8B
S1130B10FF1FE859FF4F8081918108958D3071F452
S1130B20E091E101F0E0EE0FFF1FEE0FFF1FEE0F6B
S1130B30FF1FE859FF4F8281938108958B3071F430
S1130B40E091E101F0E0EE0FFF1FEE0FFF1FEE0F4B
S1130B50FF1FE859FF4F848195810895E091E101D9
S1130B60F0E0EE0FFF1FEE0FFF1FEE0FFF1FE8591F
S1130B70FF4F86819781089584B38FEF84BB85B33B
S1130B808F7085BB08958FEF81BB12BA0895AC01B5
S1130B9020E030E02AC095B39F70906995BB8BED3F
S1130BA095E00197F1F700C0000095B39F70906C39
S1130BB095BB8BED95E00197F1F700C0000095B36C
S1130BC09F70906695BB8BED95E00197F1F700C09F
S1130BD0000095B39F70906395BB8BED95E00197F2
S1130BE0F1F700C000002F5F3F4F241735079CF238
S1130BF085B38F70806985BB8BED95E00197F1F724
S1130C0000C000000895AC0120E030E02AC095B394
S1130C109F70906395BB8BED95E00197F1F700C051
S1130C20000095B39F70906695BB8BED95E001979E
S1130C30F1F700C0000095B39F70906C95BB8BEDED
S1130C4095E00197F1F700C0000095B39F7090699B
S1130C5095BB8BED95E00197F1F700C000002F5F85
S1130C603F4F241735079CF285B38F70806985BB8D
S1130C708BED95E00197F1F700C000000895AC01F9
S1130C8020E030E02AC092B39F70906992BB8BED54
S1130C9095E00197F1F700C0000092B39F70906C4B
S1130CA092BB8BED95E00197F1F700C0000092B381
S1130CB09F70906692BB8BED95E00197F1F700C0B1
S1130CC0000092B39F70906392BB8BED95E0019707
S1130CD0F1F700C000002F5F3F4F241735079CF247
S1130CE082B38F70806982BB8BED95E00197F1F739
S1130CF000C000000895AC0120E030E02AC092B3A7
S1130D009F70906392BB8BED95E00197F1F700C063
S1130D10000092B39F70906692BB8BED95E00197B3
S1130D20F1F700C0000092B39F70906C92BB8BED02
S1130D3095E00197F1F700C0000092B39F709069AD
S1130D4092BB8BED95E00197F1F700C000002F5F97
S1130D503F4F241735079CF282B38F70806982BBA2
S1130D608BED95E00197F1F700C00000089581B381
S1130D70836081BB82B382BB82B382BB089582B39A
S1130D808C7F82BB089522B3216022BB07C089EF08
S1130D9090E00197F1F700C00000C9019C012150C7
S1130DA03109892BA1F70E94BF06089522B322605E
S1130DB022BB07C089EF90E00197F1F700C0000063
S1130DC0C9019C0121503109892BA1F70E94BF065A
S1130DD008950E94B70684EC99E00E94D60684EC3C
S1130DE099E00E94C3060E94BF06089584B38860F8
S1130DF084BB85B3877F85BB85B3886085BB089535
S1130E0084B3886084BB85B3877F85BB85B3877FC4
S1130E1085BB089580EF84BB8FE085BB08950E9455
S1130E200A079A9BFECF81E090E0089582E680B99C
S1130E3084E086BF11B8089584EA86BF06B607FE2B
S1130E40FDCF089583B984E886BF06B607FEFDCFBB
S1130E50089540E050E00AC02F5F3F4F02C020E0F9
S1130E6030E029373105C4F34F5F5F4F841795078E
S1130E70B4F7089583B1826083B984E886BF06B667
S1130E8007FEFDCF81E090E00E94290783B18D7FAA
S1130E9083B984E886BF06B607FEFDCF089593B1F3
S1130EA09E7F93B994E896BF06B607FEFDCF93B133
S1130EB09F7093B994E896BF06B607FEFDCF93B131
S1130EC0807F892B83B984E886BF06B607FEFDCFF1
S1130ED00E943A070895CF93C82F83B18E7F83B9B8
S1130EE084E886BF06B607FEFDCF83B18F7083B951
S1130EF084E886BF06B607FEFDCF83B19C2F907FA2
S1130F00892B83B984E886BF06B607FEFDCF0E940D
S1130F103A0783B18F7083B984E886BF06B607FEAB
S1130F20FDCF23B130E1C39FC0011124822B83B9CB
S1130F3084E886BF06B607FEFDCF0E943A07CF912C
S1130F40089580E30E944F0780E30E944F0780E2E8
S1130F500E944F0788E20E946B078CE00E946B0797
S1130F6081E00E946B0786E00E946B0780E80E9484
S1130F706B070895CF93C82F83B1816083B984E848
S1130F8086BF06B607FEFDCF83B18F7083B984E8B0
S1130F9086BF06B607FEFDCF83B19C2F907F892BB9
S1130FA083B984E886BF06B607FEFDCF0E943A07E0
S1130FB083B18F7083B984E886BF06B607FEFDCF80
S1130FC023B130E1C39FC0011124822B83B984E88B
S1130FD086BF06B607FEFDCF0E943A07CF9108955B
S1130FE0CF93DF93EC0103C021960E94BA07888156
S1130FF08111FACFDF91CF910895CF93DF930E94AF
S113100016070E941C0780E70E9422070E94A1077E
S113101080E80E946B0786EA90E00E94F00780EC6B
S11310200E946B0784E10E946B0784E10E946B07B6
S113103084E10E946B0784E10E946B0780EC90E0DE
S11310400E94F0072FE986E891E02150804090400B
S1131050E1F700C00000C0E0D0E00AC088E10E94CF
S11310606B0787EA91E60197F1F700C0000021962B
S1131070CB31D1059CF3DF91CF910895EF92FF928C
S11310800F931F93CF93DF93CDB7DEB764970FB65B
S1131090F894DEBF0FBECDBF81E00E946B0780E8ED
S11310A00E946B0788EC90E00E94F00780EC0E949D
S11310B06B078FE00E946B0700E010E00E9423059D
S11310C0BC01CE0101960E94C80D62EA70E0CE0117
S11310D001960E94BF0D892B01F51016110674F5B7
S11310E080E10E946B0780EA90E00E94F00780E1B3
S11310F00E946B0780E10E946B0784E10E946B07EA
S113110001501109EBE0F0E0EC0FFD1FE00FF11FBF
S113111080E290E09183808311C0CE0101960E9409
S1131120F007BE016F5F7F4F8BE090E08C0F9D1F37
S1131130800F911F0E94C80D0F5F1F4F60EA70E07F
S1131140CE0101960E94BF0D7C01CE010B960E9438
S1131150A10DAC0121E0EF2809F420E091E0411554
S1131160510509F090E0922B09F0A8CF5093DD01CE
S11311704093DC0181E00E946B0780E80E946B07CA
S11311808091DC019091DD0184319105FCF089EDC1
S113119090E00E94F0072FE986E891E0215080401A
S11311A09040E1F700C0000000E010E00BC088E1CF
S11311B00E946B0787EA91E60197F1F700C00000EF
S11311C00F5F1F4F0B31110594F366CF64960FB672
S11311D0F894DEBF0FBECDBFDF91CF911F910F9169
S11311E0FF90EF900895CF92DF92EF92FF920F93CA
S11311F01F93CF93DF93CDB7DEB764970FB6F89400
S1131200DEBF0FBECDBF84EF90E00E94F00780ECFC
S11312100E946B078FE00E946B0700E010E00E94C1
S11312202305BC01CE0101960E94C80D62EA70E05C
S1131230CE0101960E94BF0D892B01F510161106EF
S113124074F580E10E946B0780EA90E00E94F00749
S113125080E10E946B0780E10E946B0784E10E9499
S11312606B0701501109EBE0F0E0EC0FFD1FE00FFC
S1131270F11F80E290E09183808311C0CE0101963A
S11312800E94F007BE016F5F7F4F8BE090E08C0FF0
S11312909D1F800F911F0E94C80D0F5F1F4F60EAB2
S11312A070E0CE0101960E94BF0D7C01CE010B9629
S11312B00E94A10DBC0121E0EF2809F420E091E097
S11312C06115710509F090E0922B09F0A8CF072E63
S11312D0000C880B990B0E94F20B6093D801709359
S11312E0D9018093DA019093DB0181E00E946B07BE
S11312F080E80E946B07C090D801D090D901E0909B
S1131300DA01F090DB0120E030E44CE955E4C70158
S1131310B6010E947E0C8823FCF086E091E00E94D6
S1131320F0072FE986E891E0215080409040E1F7F2
S113133000C0000000E010E00BC088E10E946B07D1
S113134087EA91E60197F1F700C000000F5F1F4F95
S11313500C31110594F357CFC701B6010E94BA0BA3
S1131360CB0164960FB6F894DEBF0FBECDBFDF91FC
S1131370CF911F910F91FF90EF90DF90CF90089540
S11313804F925F926F927F928F929F92AF92BF9291
S1131390CF92DF92EF92FF920F931F93CF93DF933D
S11313A00E94FD070E943E08EC010E94F3088C0194
S11313B00E94F203E9C081E00E946B0780E80E946A
S11313C06B0785E591E00E94F0070E9434048111C7
S11313D0F2CF0AC081E00E946B0780E80E946B078D
S11313E086E691E00E94F0070E946D048111F2CF1D
S11313F00AC081E00E946B0780E80E946B0787E7C0
S113140091E00E94F0070E949A048111F2CF0E9499
S1131410760083E00E947B009093E9018093E801C9
S1131420BC01990F880B990B0E94F20B20E030E06D
S113143040E65CE30E94DB0C4B015C016093E40139
S11314407093E5018093E6019093E701B801012EC2
S1131450000C880B990B0E94F20B6B017C01C501F7
S1131460B4010E94830C2B013C0120E030E04AE7E8
S113147054E4C701B6010E94DB0C20E23CEB4EEBC6
S11314805CE40E94DB0C4B015C01A3019201C701E7
S1131490B6010E94DB0C9B01AC01C501B4010E94A2
S11314A0DC0A2AE037ED43E25CE30E94480B6B015F
S11314B07C0181E00E946B0780E80E946B0787E84B
S11314C091E00E94F0070E94F6060E94BC0584E6A3
S11314D090E00E94C7050E940F07892BE1F380E882
S11314E00E946B0787E991E00E94F00780EC0E945C
S11314F06B070E9400070E94BC0584E690E00E94EE
S113150003060E94C30584E690E00E943F060E9401
S113151094000E94D101C701B6010E94BA0BCB010D
S11315200E94E9020E94E9060E94C30584E690E055
S11315300E947B060E94F60621972FE382E49FE037
S1131540215080409040E1F700C000000E94000755
S11315502FE78AE196E0215080409040E1F700C0F7
S1131560000081E00E946B0780E80E946B0787EA15
S113157091E00E94F0072FE78AE196E02150804035
S11315809040E1F700C000001C161D060CF41DCFAE
S113159080E090E0DF91CF911F910F91FF90EF9049
S11315A0DF90CF90BF90AF909F908F907F906F907F
S11315B05F904F9008955058BB27AA270E94F30AC2
S11315C00C94440C0E94360C38F00E943D0C20F020
S11315D039F49F3F19F426F40C94330C0EF4E0957F
S11315E0E7FB0C942D0CE92F0E94550C58F3BA1705
S11315F0620773078407950720F079F4A6F50C9425
S1131600770C0EF4E0950B2EBA2FA02D0B01B90127
S113161090010C01CA01A0011124FF27591B99F064
S1131620593F50F4503E68F11A16F040A22F232F70
S1131630342F4427585FF3CF469537952795A795C0
S1131640F0405395C9F77EF41F16BA0B620B730B67
S1131650840BBAF09150A1F0FF0FBB1F661F771FD8
S1131660881FC2F70EC0BA0F621F731F841F48F48D
S1131670879577956795B795F7959E3F08F0B0CF16
S11316809395880F08F09927EE0F979587950895FD
S11316900E945C0B0C94440C0E943D0C58F00E9478
S11316A0360C40F029F45F3F29F00C942D0C5111B5
S11316B00C94780C0C94330C0E94550C68F3992309
S11316C0B1F3552391F3951B550BBB27AA2762173A
S11316D07307840738F09F5F5F4F220F331F441F47
S11316E0AA1FA9F335D00E2E3AF0E0E832D091507B
S11316F05040E695001CCAF72BD0FE2F29D0660F68
S1131700771F881FBB1F261737074807AB07B0E8AA
S113171009F0BB0B802DBF01FF2793585F4F3AF0B0
S11317209E3F510578F00C942D0C0C94780C5F3F7F
S1131730E4F3983ED4F3869577956795B795F79536
S11317409F5FC9F7880F911D9695879597F908951E
S1131750E1E0660F771F881FBB1F621773078407BA
S1131760BA0720F0621B730B840BBA0BEE1F88F7C9
S1131770E09508950E94C10B6894B1110C94780C03
S113178008950E945D0C88F09F5798F0B92F99270F
S1131790B751B0F0E1F0660F771F881F991F1AF058
S11317A0BA95C9F714C0B13091F00E94770CB1E03A
S11317B008950C94770C672F782F8827B85F39F039
S11317C0B93FCCF3869577956795B395D9F73EF4F1
S11317D090958095709561957F4F8F4F9F4F089599
S11317E0E89409C097FB3EF49095809570956195B7
S11317F07F4F8F4F9F4F9923A9F0F92F96E9BB276D
S11318009395F695879577956795B795F111F8CFE8
S1131810FAF4BB0F11F460FF1BC06F5F7F4F8F4F53
S11318209F4F16C0882311F096E911C0772321F049
S11318309EE8872F762F05C0662371F096E8862FE1
S113184070E060E02AF09A95660F771F881FDAF738
S1131850880F9695879597F9089597F99F6780E87B
S113186070E060E008959FEF80EC089500240A94EE
S11318701616170618060906089500240A94121667
S11318801306140605060895092E0394000C11F49A
S1131890882352F0BB0F40F4BF2B11F460FF04C047
S11318A06F5F7F4F8F4F9F4F089557FD9058440FA0
S11318B0551F59F05F3F71F04795880F97FB991FAB
S11318C061F09F3F79F08795089512161306140668
S11318D0551FF2CF4695F1DF08C0161617061806F5
S11318E0991FF1CF86957105610508940895E894D0
S11318F0BB2766277727CB0197F908950E94480DE7
S113190008F48FEF08950E94930C29ED3BE54EED0A
S11319105EE30C94DB0C16F00C946C0D0C94330CFD
S113192068940C942D0C0E945D0CA8F39923C1F3C8
S1131930AEF3DF93CF931F930F93FF92C92FDD274D
S113194088232AF02197660F771F881FDAF720E093
S113195030E040E85FEB9FE3883920F0803E38F0C8
S113196021968F770E94DC0AE4E5F0E004C00E942F
S1131970DC0AE1E8F0E00E947A0D8B01BE01EC0183
S1131980FB2E6F5771097595771F880B990B0E9471
S1131990F20B28E132E741E35FE30E94EE0CAF2D46
S11319A09801AE01FF900F911F91CF91DF910E949A
S11319B0F30A0C94440C0E94EE0C0C94440C0E9408
S11319C0360C38F00E943D0C20F0952311F00C9455
S11319D02D0C0C94330C11240C94780C0E94550C8F
S11319E070F3959FC1F3950F50E0551F629FF0016E
S11319F0729FBB27F00DB11D639FAA27F00DB11D87
S1131A00AA1F649F6627B00DA11D661F829F22270F
S1131A10B00DA11D621F739FB00DA11D621F839F96
S1131A20A00D611D221F749F3327A00D611D231F6C
S1131A30849F600D211D822F762F6A2F11249F57BA
S1131A4050409AF0F1F088234AF0EE0FFF1FBB1FBD
S1131A50661F771F881F91505040A9F79E3F51057C
S1131A6080F00C942D0C0C94780C5F3FE4F3983EBA
S1131A70D4F3869577956795B795F795E7959F5F26
S1131A80C1F7FE2B880F911D9695879597F90895B8
S1131A90990F0008550FAA0BE0E8FEEF161617067B
S1131AA0E807F907C0F012161306E407F50798F0E3
S1131AB0621B730B840B950B39F40A2661F0232BFC
S1131AC0242B252B21F408950A2609F4A140A69578
S1131AD08FEF811D811D08959F3F31F0915020F4B7
S1131AE0879577956795B795880F911D96958795F6
S1131AF097F90895DF93CF931F930F93FF92EF927B
S1131B00DF927B018C01689406C0DA2EEF010E94FB
S1131B10EE0CFE01E894A5912591359145915591DE
S1131B20A6F3EF010E94F30AFE019701A801DA94DB
S1131B3069F7DF90EF90FF900F911F91CF91DF91A4
S1131B400895FC0188279927E89421912032E9F32C
S1131B50293010F02E30C8F32B3241F02D3239F4F5
S1131B60689404C00E94CF0D820F911D21912053CF
S1131B702A30C0F31EF4909581959F4F0895FB0180
S1131B80DC018D91019080190110D9F3990B08950E
S1131B90FB01DC0101900D920020E1F708957AE049
S1131BA0979F902D879F802D910D11240895F8946F
S1051BB0FFCF61
S1131BB2E803E8030000904088008A008C008E004D
S1131BC2900092009400960098009A009C009E0057
S1131BD2A000BE00A200A4003700380039002E0085
S1131BE234003500360078003100320033002D0015
S1131BF220003D002B0052756262657220536F6CA7
S1131C027574696F6E204D6978657220312E3000CB
S1131C1257656C636F6D65004E756D626572206FFA
S1131C22662054726179733F00456E746572206157
S1131C322076616C7565206C657373207468616EBF
S1131C4220323000566F6C2E6F6620612054726110
S1131C5279286D6C2900456E746572206120766165
S1131C626C7565206C657373207468616E20353001
S1131C723030005761746572204C6576656C204C77
S1131C826F77210041636964204C6576656C204C52
S1131C926F7721004C61746578204C6576656C2001
S1131CA24C6F77210077617465722074616E6B20CA
S1131CB2656D707479006C617465782074616E6B03
S1131CC220656D70747900616369642074616E6B60
S1131CD220656D707479004D616368696E65207367
S1131CE27461727465640044616374767420436F32
S1131CF26E7665796F7200456E64206F6620637933
S1071D02636C6500A5
S9030000FC
