:100000000C942A000C94AB030C94C1040C94D705F7
:100010000C9447000C9447000C9447000C94860302
:100020000C9447000C9447000C9447000C94470034
:100030000C9447000C9447000C9447000C94470024
:100040000C9447000C9447000C9447000C94470014
:100050000C94470011241FBECFE5D8E0DEBFCDBF12
:1000600011E0A0E6B0E0E6EEFFE102C005900D92DF
:10007000AE3EB107D9F722E0AEEEB1E001C01D926D
:10008000A431B207E1F70E9498080C94F10F0C9488
:10009000000080E487B987E886B90895877097B132
:1000A000987F892B87B986B1806486B93699FECF4F
:1000B00084B195B1089580EF8ABB8FEF8BBB8BB372
:1000C0008F708BBB000089B38F7080930E028F30CE
:1000D000B1F787E893E10197F1F700C0000089B319
:1000E0008F7080930E028F30A1F38FE097E201971B
:1000F000F1F700C0000089B38F7080930E028F303B
:1001000041F38FEE8BBB000089B38F7080930E029A
:100110008F3019F010920F0227C08FED8BBB0000BB
:1001200089B38F7080930E028F3021F081E080932D
:100130000F021AC08FEB8BBB000089B38F708093C6
:100140000E028F3021F082E080930F020DC08FE706
:100150008BBB000089B38F7080930E028F3009F43F
:10016000AACF83E080930F0280910E028E3071F44B
:10017000E0910F02F0E0EE0FFF1FEE0FFF1FEE0FFA
:10018000FF1FEA59FF4F8081918108958D3071F4EE
:10019000E0910F02F0E0EE0FFF1FEE0FFF1FEE0FDA
:1001A000FF1FEA59FF4F8281938108958B3071F4CC
:1001B000E0910F02F0E0EE0FFF1FEE0FFF1FEE0FBA
:1001C000FF1FEA59FF4F848195810895E0910F0246
:1001D000F0E0EE0FFF1FEE0FFF1FEE0FFF1FEA59BB
:1001E000FF4F86819781089584B38FEF84BB85B3D9
:1001F0008F7085BB08958FEF81BB12BA0895AC0153
:1002000020E030E02AC095B39F70906995BB8BEDDC
:1002100095E00197F1F700C0000095B39F70906CD6
:1002200095BB8BED95E00197F1F700C0000095B309
:100230009F70906695BB8BED95E00197F1F700C03C
:10024000000095B39F70906395BB8BED95E001978F
:10025000F1F700C000002F5F3F4F241735079CF2D5
:1002600085B38F70806985BB8BED95E00197F1F7C1
:1002700000C000000895AC0120E030E02AC095B332
:100280009F70906395BB8BED95E00197F1F700C0EF
:10029000000095B39F70906695BB8BED95E001973C
:1002A000F1F700C0000095B39F70906C95BB8BED8B
:1002B00095E00197F1F700C0000095B39F70906939
:1002C00095BB8BED95E00197F1F700C000002F5F23
:1002D0003F4F241735079CF285B38F70806985BB2B
:1002E0008BED95E00197F1F700C000000895AC0197
:1002F00020E030E02AC092B39F70906992BB8BEDF2
:1003000095E00197F1F700C0000092B39F70906CE8
:1003100092BB8BED95E00197F1F700C0000092B31E
:100320009F70906692BB8BED95E00197F1F700C04E
:10033000000092B39F70906392BB8BED95E00197A4
:10034000F1F700C000002F5F3F4F241735079CF2E4
:1003500082B38F70806982BB8BED95E00197F1F7D6
:1003600000C000000895AC0120E030E02AC092B344
:100370009F70906392BB8BED95E00197F1F700C001
:10038000000092B39F70906692BB8BED95E0019751
:10039000F1F700C0000092B39F70906C92BB8BEDA0
:1003A00095E00197F1F700C0000092B39F7090694B
:1003B00092BB8BED95E00197F1F700C000002F5F35
:1003C0003F4F241735079CF282B38F70806982BB40
:1003D0008BED95E00197F1F700C00000089581B31F
:1003E000836081BB82B382BB82B382BB089582B338
:1003F0008C7F82BB089522B3216022BB07C089EFA6
:1004000090E00197F1F700C00000C9019C01215064
:100410003109892BA1F70E94F701089522B32260C8
:1004200022BB07C089EF90E00197F1F700C0000000
:10043000C9019C0121503109892BA1F70E94F701C4
:1004400008950E94EF0184EC99E00E940E0284EC72
:1004500099E00E94FB010E94F701089584B388602F
:1004600084BB85B3877F85BB85B3886085BB0895D2
:1004700084B3886084BB85B3877F85BB85B3877F62
:1004800085BB089588B388BB88B388BB089588B3BB
:10049000886088BB88B388BB089588B388BB88B35D
:1004A000886088BB089583ED90E30197F1F700C061
:1004B000000088B3826088BB95E09A95F1F788B315
:1004C0008D7F88BB80910C0290910D0284359B40FA
:1004D0001CF081E090E0089580E090E0089580EFC6
:1004E00084BB8FE085BB08950E946F029A9BFECF6C
:1004F00081E090E008951FBC1EBC8EB585608EBD66
:100500001DBC1CBC0895CF92DF92EF92FF920F9317
:100510001F9387B3806287BB88B38F7D88BB88B306
:1005200088BB88B388BB88B3806288BB0E947B028B
:1005300081B38B7F81BB8FEF82BB81B38B7F81BB0C
:1005400080E48BBF83E085BF7894B3C08091F801CD
:100550009091F901A091FA01B091FB014091020242
:10056000509103026091040270910502841B950B67
:10057000A60BB70B883E9340A105B10508F499C0BE
:100580008091F4019091F501A091F601B091F701ED
:100590000196A11DB11D8093F4019093F501A093E4
:1005A000F601B093F7018091F4019091F501A091CB
:1005B000F601B091F7010197A105B10509F079C0E5
:1005C000F8948091F8019091F901A091FA01B0910D
:1005D000FB0100910202109103022091040230916C
:1005E0000502BC01CD01601B710B820B930B0E94B5
:1005F0007E0A9B01AC0160E070E08AE794E40E940F
:10060000D6096B017C01609106027091070280E0BF
:1006100090E00E947E0AA70196010E94110B209192
:1006200086003091870040918800509189000E9497
:10063000D609609308027093090280930A0290938E
:100640000B020091F8011091F9012091FA0130910B
:10065000FB010093020210930302209304023093E3
:10066000050220E030E040E752E40E94D60920E095
:1006700030E04AE754E40E94110B0E944F0A709345
:100680000102609300022091FC013091FD01409134
:10069000FE015091FF01DA01C901860F971FA11DCC
:1006A000B11D8093FC019093FD01A093FE01B093D6
:1006B000FF018091FC019091FD01A091FE01B0919C
:1006C000FF01883E9340A105B10509F03FCF88B3F3
:1006D0008F7D88BB1092F8011092F9011092FA01F7
:1006E0001092FB011092F4011092F5011092F601A4
:1006F0001092F701109207021092060278941F914F
:100700000F91FF90EF90DF90CF9008951F920F927E
:100710000FB60F9211248F939F93AF93BF93809145
:10072000F8019091F901A091FA01B091FB010196B5
:10073000A11DB11D8093F8019093F901A093FA01D6
:10074000B093FB01BF91AF919F918F910F900FBE1E
:100750000F901F9018951F920F920FB60F921124B1
:100760008F939F9380910602909107020196909338
:100770000702809306029F918F910F900FBE0F90FA
:100780001F901895CF92DF92EF92FF920F931F93D5
:1007900087B3806487BB88B38F7B88BB88B3806452
:1007A00088BB0E947B0281B38B7F81BB8FEF82BBB2
:1007B00081B3877F81BB80E88BBF8CE085BF789455
:1007C000B3C08091F8019091F901A091FA01B09124
:1007D000FB0140910202509103026091040270916A
:1007E0000502841B950BA60BB70B883E9340A10511
:1007F000B10508F499C08091F4019091F501A091A0
:10080000F601B091F7010196A11DB11D8093F4018D
:100810009093F501A093F601B093F7018091F40154
:100820009091F501A091F601B091F7010197A10512
:10083000B10509F079C0F8948091F8019091F9011F
:10084000A091FA01B091FB01009102021091030204
:100850002091040230910502BC01CD01601B710B97
:10086000820B930B0E947E0A9B01AC0160E070E05A
:100870008AE794E40E94D6096B017C01609106022C
:100880007091070280E090E00E947E0AA701960125
:100890000E94110B209186003091870040918800C2
:1008A000509189000E94D609609308027093090252
:1008B00080930A0290930B020091F8011091F901C4
:1008C0002091FA013091FB01009302021093030280
:1008D000209304023093050220E030E040E752E428
:1008E0000E94D60920E030E04AE754E40E94110B50
:1008F0000E944F0A70930102609300022091FC0154
:100900003091FD014091FE015091FF01DA01C901D2
:10091000860F971FA11DB11D8093FC019093FD01CF
:10092000A093FE01B093FF018091FC019091FD0125
:10093000A091FE01B091FF01883E9340A105B10551
:1009400009F03FCF88B38F7B88BB1092F8011092DB
:10095000F9011092FA011092FB011092F401109229
:10096000F5011092F6011092F70110920702109211
:10097000060278941F910F91FF90EF90DF90CF9037
:1009800008951F920F920FB60F9211248F939F9389
:10099000809106029091070201969093070280933E
:1009A00006029F918F910F900FBE0F901F90189588
:1009B000CF92DF92EF92FF920F931F9387B38068DD
:1009C00087BB88B38F7788BB88B3806888BB0E9459
:1009D0007B0287B38B7F87BB8FEF88BB87B38B7F0F
:1009E00087BB80E28BBF80E485BF7894B3C08091E1
:1009F000F8019091F901A091FA01B091FB014091A9
:100A00000202509103026091040270910502841B5E
:100A1000950BA60BB70B883E9340A105B10508F4D2
:100A200099C08091F4019091F501A091F601B091E7
:100A3000F7010196A11DB11D8093F4019093F5017A
:100A4000A093F601B093F7018091F4019091F50124
:100A5000A091F601B091F7010197A105B10509F048
:100A600079C0F8948091F8019091F901A091FA0170
:100A7000B091FB0100910202109103022091040247
:100A800030910502BC01CD01601B710B820B930BF1
:100A90000E947E0A9B01AC0160E070E08AE794E46A
:100AA0000E94D6096B017C016091060270910702D9
:100AB00080E090E00E947E0AA70196010E94110B3F
:100AC00020918600309187004091880050918900E4
:100AD0000E94D609609308027093090280930A026B
:100AE00090930B020091F8011091F9012091FA0105
:100AF0003091FB0100930202109303022093040241
:100B00003093050220E030E040E752E40E94D6092D
:100B100020E030E04AE754E40E94110B0E944F0AA3
:100B200070930102609300022091FC013091FD015D
:100B30004091FE015091FF01DA01C901860F971F14
:100B4000A11DB11D8093FC019093FD01A093FE01B6
:100B5000B093FF018091FC019091FD01A091FE01F5
:100B6000B091FF01883E9340A105B10509F03FCF48
:100B700088B38F7788BB1092F8011092F901109218
:100B8000FA011092FB011092F4011092F5011092FB
:100B9000F6011092F7011092070210920602789463
:100BA0001F910F91FF90EF90DF90CF9008951F92CB
:100BB0000F920FB60F9211248F939F93809106028C
:100BC00090910702019690930702809306029F91ED
:100BD0008F910F900FBE0F901F90189582E680B9ED
:100BE00084E086BF11B8089584EA86BF06B607FE82
:100BF000FDCF089583B984E886BF06B607FEFDCF12
:100C0000089540E050E00AC02F5F3F4F02C020E04F
:100C100030E029373105C4F34F5F5F4F84179507E4
:100C2000B4F7089583B1826083B984E886BF06B6BD
:100C300007FEFDCF81E090E00E94010683B18D7F29
:100C400083B984E886BF06B607FEFDCF089593B149
:100C50009E7F93B994E896BF06B607FEFDCF93B189
:100C60009F7093B994E896BF06B607FEFDCF93B187
:100C7000807F892B83B984E886BF06B607FEFDCF47
:100C80000E9412060895CF93C82F83B18E7F83B937
:100C900084E886BF06B607FEFDCF83B18F7083B9A7
:100CA00084E886BF06B607FEFDCF83B19C2F907FF8
:100CB000892B83B984E886BF06B607FEFDCF0E9464
:100CC000120683B18F7083B984E886BF06B607FE2B
:100CD000FDCF23B130E1C39FC0011124822B83B922
:100CE00084E886BF06B607FEFDCF0E941206CF91AC
:100CF000089580E30E94270680E30E94270680E291
:100D00000E94270688E20E9443068CE00E94430668
:100D100081E00E94430686E00E94430680E80E942C
:100D200043060895CF93C82F83B1816083B984E8C7
:100D300086BF06B607FEFDCF83B18F7083B984E806
:100D400086BF06B607FEFDCF83B19C2F907F892B0F
:100D500083B984E886BF06B607FEFDCF0E9412065F
:100D600083B18F7083B984E886BF06B607FEFDCFD6
:100D700023B130E1C39FC0011124822B83B984E8E1
:100D800086BF06B607FEFDCF0E941206CF910895DA
:100D9000CF93DF93EC0103C021960E9492068881D5
:100DA0008111FACFDF91CF910895CF93DF930E9405
:100DB000EE050E94F40580E70E94FA050E9479067C
:100DC00080E80E94430688EA90E00E94C80680EC12
:100DD0000E94430684E10E94430684E10E94430688
:100DE00084E10E94430684E10E94430682EC90E085
:100DF0000E94C8062FE986E891E02150804090408B
:100E0000E1F700C00000C0E0D0E00AC088E10E9425
:100E1000430687EA91E60197F1F700C000002196AA
:100E2000CB31D1059CF3DF91CF910895EF92FF92E2
:100E30000F931F93CF93DF93CDB7DEB764970FB6B1
:100E4000F894DEBF0FBECDBF81E00E94430680E86C
:100E50000E9443068AEC90E00E94C80680EC0E9443
:100E600043068FE00E94430600E010E00E945B0012
:100E7000BC01CE0101960E94EA0C64EA70E0CE014A
:100E800001960E94E10C892B01F51016110674F5EC
:100E900080E10E94430682EA90E00E94C80680E159
:100EA0000E94430680E10E94430684E10E944306BB
:100EB00001501109EBE0F0E0EC0FFD1FE00FF11F16
:100EC00080E290E09183808311C0CE0101960E9460
:100ED000C806BE016F5F7F4F8BE090E08C0F9D1FB7
:100EE000800F911F0E94EA0C0F5F1F4F62EA70E0B3
:100EF000CE0101960E94E10C7C01CE010B960E946E
:100F0000C30CAC0121E0EF2809F420E091E0411589
:100F1000510509F090E0922B09F0A8CF5093F3010E
:100F20004093F20181E00E94430680E80E9443065C
:100F30008091F2019091F30184319105FCF08BEDE9
:100F400090E00E94C8062FE986E891E02150804099
:100F50009040E1F700C0000000E010E00BC088E125
:100F60000E94430687EA91E60197F1F700C000006E
:100F70000F5F1F4F0B31110594F366CF64960FB6C8
:100F8000F894DEBF0FBECDBFDF91CF911F910F91BF
:100F9000FF90EF900895CF92DF92EF92FF920F9320
:100FA0001F93CF93DF93CDB7DEB764970FB6F89456
:100FB000DEBF0FBECDBF86EF90E00E94C80680EC7A
:100FC0000E9443068FE00E94430600E010E00E946A
:100FD0005B00BC01CE0101960E94EA0C64EA70E05D
:100FE000CE0101960E94E10C892B01F51016110625
:100FF00074F580E10E94430682EA90E00E94C806F0
:1010000080E10E94430680E10E94430684E10E9441
:10101000430601501109EBE0F0E0EC0FFD1FE00F7B
:10102000F11F80E290E09183808311C0CE01019690
:101030000E94C806BE016F5F7F4F8BE090E08C0F6F
:101040009D1F800F911F0E94EA0C0F5F1F4F62EAE5
:1010500070E0CE0101960E94E10C7C01CE010B965E
:101060000E94C30CBC0121E0EF2809F420E091E0CC
:101070006115710509F090E0922B09F0A8CF072EB9
:10108000000C880B990B0E94800A6093EE0170930C
:10109000EF018093F0019093F10181E00E944306FB
:1010A00080E80E944306C090EE01D090EF01E090EE
:1010B000F001F090F10120E030E44CE955E4C70183
:1010C000B6010E940C0B8823FCF088E091E00E949E
:1010D000C8062FE986E891E0215080409040E1F772
:1010E00000C0000000E010E00BC088E10E94430651
:1010F00087EA91E60197F1F700C000000F5F1F4FEC
:101100000C31110594F357CFC701B6010E94480A6C
:10111000CB0164960FB6F894DEBF0FBECDBFDF9152
:10112000CF911F910F91FF90EF90DF90CF90089596
:101130008F929F92AF92BF92CF92DF92EF92FF92E7
:101140000F931F93CF93DF930E94D5060E9416073B
:101150007C010E94CB0717C10E9442020E945302E9
:10116000892B51F481E00E94430680E80E944306E7
:1011700087E591E00E94C8060E9447020E94530240
:101180000E944D020E9453020E94490080E00E948A
:101190004E00BC01990F880B990B0E94800A20E039
:1011A00030E040E65CE30E94110BB62EA72E982E8D
:1011B000892E9F938F937F936F9300E611E01F9387
:1011C0000F931F921F921F921F920E94F90CEC0125
:1011D00021968C2F9D2F0E94A20BC82ED92E8F9264
:1011E0009F92AF92BF921F930F93DF93CF939F93E2
:1011F000CF920E94F90C81E00E94430680E80E9491
:1012000043068C2D9D2D0E94C8069FE72AE186E0AB
:10121000915020408040E1F700C0000081E00E9432
:10122000430680E80E94430683E691E00E94C806D8
:101230000E942E0281E00E94430680E80E9443063D
:1012400081E791E00E94C8060E94F40084E690E0E5
:101250000E94FF0081E00E94430680E80E9443064E
:1012600080E891E00E94C8068DB79EB744960FB6FD
:10127000F8949EBF0FBE8DBF0E947402892BE1F3CC
:1012800080E80E9443068FE891E00E94C80680EC47
:101290000E9443060E94380281E00E94430680E8D3
:1012A0000E9443068FE991E00E94C8060E94F40064
:1012B00084E690E00E943B0181E00E94430680E8C2
:1012C0000E9443068CEA91E00E94C8060E94FB003F
:1012D00084E690E00E94770181E00E94430680E866
:1012E0000E9443068AEB91E00E94C8060E94830296
:1012F0000E94C2030E94D80481E00E94430680E855
:101300000E94430685EC91E00E94C8060E942102DB
:1013100081E00E94430680E80E94430680ED91E050
:101320000E94C8060E94FB0082E090E00E94B30188
:1013300081E00E94430680E80E94430683E691E034
:101340000E94C8060E942E0291E0E91AF1082FE3DC
:1013500082E49FE0215080409040E1F700C000000F
:1013600081E00E94430680E80E9443068EED91E0F2
:101370000E94C8062FE78AE196E021508040904005
:10138000E1F700C000001E141F040CF4E5CE80E05D
:1013900090E0DF91CF911F910F91FF90EF90DF9040
:1013A000CF90BF90AF909F908F9008950E94EA09D0
:1013B0000C94D20A0E94CB0A58F00E94C40A40F052
:1013C00029F45F3F29F00C94BB0A51110C94060BD1
:1013D0000C94C10A0E94E30A68F39923B1F35523E0
:1013E00091F3951B550BBB27AA2762177307840738
:1013F00038F09F5F5F4F220F331F441FAA1FA9F3CE
:1014000035D00E2E3AF0E0E832D091505040E695BB
:10141000001CCAF72BD0FE2F29D0660F771F881F1C
:10142000BB1F261737074807AB07B0E809F0BB0B0F
:10143000802DBF01FF2793585F4F3AF09E3F510523
:1014400078F00C94BB0A0C94060B5F3FE4F3983ED3
:10145000D4F3869577956795B795F7959F5FC9F70C
:10146000880F911D9695879597F90895E1E0660F8D
:10147000771F881FBB1F621773078407BA0720F006
:10148000621B730B840BBA0BEE1F88F7E09508956F
:101490000E944F0A6894B1110C94060B08950E94A3
:1014A000EB0A88F09F5798F0B92F9927B751B0F001
:1014B000E1F0660F771F881F991F1AF0BA95C9F7D8
:1014C00014C0B13091F00E94050BB1E008950C9466
:1014D000050B672F782F8827B85F39F0B93FCCF319
:1014E000869577956795B395D9F73EF49095809555
:1014F000709561957F4F8F4F9F4F0895E89409C075
:1015000097FB3EF490958095709561957F4F8F4F36
:101510009F4F9923A9F0F92F96E9BB279395F6954C
:10152000879577956795B795F111F8CFFAF4BB0FCA
:1015300011F460FF1BC06F5F7F4F8F4F9F4F16C02E
:10154000882311F096E911C0772321F09EE8872FB8
:10155000762F05C0662371F096E8862F70E060E074
:101560002AF09A95660F771F881FDAF7880F9695ED
:10157000879597F9089597F99F6780E870E060E094
:1015800008959FEF80EC089500240A94161617061C
:1015900018060906089500240A9412161306140664
:1015A00005060895092E0394000C11F4882352F0C7
:1015B000BB0F40F4BF2B11F460FF04C06F5F7F4F7F
:1015C0008F4F9F4F089557FD9058440F551F59F066
:1015D0005F3F71F04795880F97FB991F61F09F3F20
:1015E00079F087950895121613061406551FF2CF49
:1015F0004695F1DF08C0161617061806991FF1CF99
:1016000086957105610508940895E894BB276627BF
:101610007727CB0197F908950E947E0B08F48FEF8E
:1016200008950E94240B0C94D20A0E94C40A38F038
:101630000E94CB0A20F0952311F00C94BB0A0C9465
:10164000C10A11240C94060B0E94E30A70F3959FC3
:10165000C1F3950F50E0551F629FF001729FBB27A9
:10166000F00DB11D639FAA27F00DB11DAA1F649F45
:101670006627B00DA11D661F829F2227B00DA11DF8
:10168000621F739FB00DA11D621F839FA00D611D7E
:10169000221F749F3327A00D611D231F849F600D9F
:1016A000211D822F762F6A2F11249F5750409AF0C8
:1016B000F1F088234AF0EE0FFF1FBB1F661F771F54
:1016C000881F91505040A9F79E3F510580F00C941F
:1016D000BB0A0C94060B5F3FE4F3983ED4F3869567
:1016E00077956795B795F795E7959F5FC1F7FE2BBF
:1016F000880F911D9695879597F90895990F000881
:10170000550FAA0BE0E8FEEF16161706E807F907D3
:10171000C0F012161306E407F50798F0621B730B6E
:10172000840B950B39F40A2661F0232B242B252BEF
:1017300021F408950A2609F4A140A6958FEF811D92
:10174000811D08950F931F93CF93DF9382309105EE
:1017500010F482E090E0E0911202F091130220E098
:1017600030E0A0E0B0E0309719F140815181028172
:10177000138148175907C8F08417950769F4109723
:1017800031F012960C93129713961C9327C0009376
:1017900012021093130222C02115310519F04217CD
:1017A000530718F49A01BD01EF01DF01F801DBCF07
:1017B00021153105F9F0281B390B2430310580F44F
:1017C0008A819B816115710521F0FB0193838283DE
:1017D00004C09093130280931202FE01329644C01B
:1017E000FE01E20FF31F8193919322503109398357
:1017F00028833AC02091100230911102232B41F42A
:101800002091620030916300309311022093100206
:1018100020916000309161002115310541F42DB710
:101820003EB74091640050916500241B350BE09158
:101830001002F0911102E217F307A0F42E1B3F0BE8
:101840002817390778F0AC014E5F5F4F2417350732
:1018500048F04E0F5F1F5093110240931002819386
:10186000919302C0E0E0F0E0CF01DF91CF911F91B2
:101870000F910895CF93DF93009709F481C0FC0185
:10188000329713821282A0911202B0911302109724
:1018900081F420813181820F931F209110023091B9
:1018A00011022817390751F5F0931102E093100245
:1018B00067C0ED0120E030E0CE17DF0740F44A8139
:1018C0005B819E0141155105F1F0EA01F5CFD3830B
:1018D000C28340815181840F951FC817D90759F4DD
:1018E00088819981840F951F0296918380838A81D4
:1018F0009B81938382832115310529F4F093130290
:10190000E09312023DC0E901FB83EA8349915991BA
:10191000C40FD51FEC17FD0761F480819181840FFE
:10192000951F0296E90199838883828193819B8325
:101930008A83E0E0F0E012968D919C9113970097D6
:1019400019F0FD01DC01F7CF8D919C9111979D015C
:101950002E5F3F4F820F931F209110023091110292
:101960002817390769F4309729F41092130210925E
:10197000120202C013821282B0931102A0931002CD
:10198000DF91CF910895FC0188279927E894219150
:101990002032E9F3293010F02E30C8F32B3241F019
:1019A0002D3239F4689404C00E94F10C820F911D0D
:1019B000219120532A30C0F31EF4909581959F4FBA
:1019C0000895FB01DC018D91019080190110D9F37C
:1019D000990B0895FB01DC0101900D920020E1F7C5
:1019E00008957AE0979F902D879F802D910D112467
:1019F0000895AEE0B0E0EFEFFCE00C94C80F0D8965
:101A00001E898F89988D26E02C831A83098397FF7E
:101A100002C080E090E801979E838D83AE01455E11
:101A20005F4F698D7A8DCE0101960E94290D4D81FF
:101A30005E8157FD0AC02F813885421753070CF489
:101A40009A01F801E20FF31F10822E96E4E00C9445
:101A5000E40FABE0B0E0EFE2FDE00C94BA0F6C01F4
:101A60007B018A01FC0117821682838181FFCCC130
:101A7000CE0101963C01F6019381F70193FD85911A
:101A800093FF81917F01882309F4BAC1853239F42B
:101A900093FD859193FF81917F01853229F4B601F1
:101AA00090E00E94200FE7CF912C212C312CFFE1F8
:101AB000F315D8F08B3279F038F4803279F0833234
:101AC000A1F4232D20611DC08D3261F0803369F4B3
:101AD000232D216016C0832D8260382EE32DE46013
:101AE0003E2E2AC0F32DF8601DC037FC2DC020ED1E
:101AF000280F2A3040F08E32B9F436FC81C1232DF4
:101B00002064322E19C036FE06C08AE0989E200D51
:101B10001124922E11C0EAE02E9E200D1124222EB7
:101B2000F32DF0623F2E08C08C3621F4832D80689F
:101B3000382E02C0883641F4F70193FD859193FF5A
:101B400081917F018111B3CF982F9F7D9554933060
:101B500028F40C5F1F4F9FE399830DC0833631F04B
:101B6000833771F0833509F059C021C0F8018081B5
:101B700089830E5F1F4F88248394912C530113C0D7
:101B80002801F2E04F0E511CF801A080B18036FE12
:101B900003C0692D70E002C06FEF7FEFC5010E94A6
:101BA000150F4C018201F32DFF773F2E16C028013F
:101BB00022E0420E511CF801A080B18036FE03C025
:101BC000692D70E002C06FEF7FEFC5010E940A0F20
:101BD0004C01F32DF0683F2E820133FC1BC0822D97
:101BE00090E088169906B0F4B60180E290E00E9479
:101BF000200F2A94F4CFF50137FC859137FE8191AF
:101C00005F01B60190E00E94200F21102A9421E08C
:101C1000821A91088114910471F7E8C0843611F09A
:101C2000893641F5F80137FE07C0608171818281F4
:101C300093810C5F1F4F08C060817181072E000CDB
:101C4000880B990B0E5F1F4FF32DFF763F2E97FFEA
:101C500009C090958095709561957F4F8F4F9F4FEC
:101C6000F0683F2E2AE030E0A3010E945C0F882E2E
:101C7000861845C0853731F4232D2F7EB22E2AE0F9
:101C800030E025C0932D997FB92E8F36C1F018F41E
:101C9000883579F0B5C0803719F0883721F0B0C0A9
:101CA000E92FE061BE2EB4FE0DC0FB2DF460BF2E07
:101CB00009C034FE0AC0292F2660B22E06C028E0D3
:101CC00030E005C020E130E002C020E132E0F80160
:101CD000B7FE07C060817181828193810C5F1F4FC5
:101CE00006C06081718180E090E00E5F1F4FA3010C
:101CF0000E945C0F882E8618FB2DFF773F2E36FE44
:101D00000DC0232D2E7FA22E891458F434FE0BC053
:101D100032FC09C0832D8E7EA82E05C0B82CA32CC2
:101D200003C0B82C01C0B92CA4FE0FC0FE01E80D01
:101D3000F11D8081803321F49A2D997EA92E09C04E
:101D4000A2FE06C0B394B39404C08A2D867809F02D
:101D5000B394A3FC11C0A0FE06C0B21488F4280CF2
:101D6000922C9B180EC0B21460F4B60180E290E091
:101D70000E94200FB394F7CFB21418F42B1802C0AE
:101D8000982C212CA4FE10C0B60180E390E00E94A4
:101D9000200FA2FE17C0A1FC03C088E790E002C09C
:101DA00088E590E0B6010CC08A2D867859F0A1FE36
:101DB00002C08BE201C080E2A7FC8DE2B60190E098
:101DC0000E94200F891438F4B60180E390E00E944D
:101DD000200F9A94F7CF8A94F301E80DF11D8081CA
:101DE000B60190E00E94200F8110F5CF222009F467
:101DF00042CEB60180E290E00E94200F2A94F6CFF6
:101E0000F6018681978102C08FEF9FEF2B96E2E16A
:101E10000C94D60FFC010590615070400110D8F76A
:101E2000809590958E0F9F1F0895FC016150704022
:101E300001900110D8F7809590958E0F9F1F0895FF
:101E40000F931F93CF93DF93FB01238121FD03C0E9
:101E50008FEF9FEF2CC022FF16C04681578124814F
:101E600035814217530744F4A081B1819D012F5F52
:101E70003F4F318320838C93268137812F5F3F4FE3
:101E80003783268314C08B01EC01FB010084F185AC
:101E9000E02D0995892BE1F6D80116968D919C913C
:101EA0001797019617969C938E931697CE01DF9104
:101EB000CF911F910F910895FA01AA27283051F16F
:101EC000203181F1E8946F936E7F6E5F7F4F8F4F6B
:101ED0009F4FAF4FB1E03ED0B4E03CD0670F781FCA
:101EE000891F9A1FA11D680F791F8A1F911DA11DAF
:101EF0006A0F711D811D911DA11D20D009F46894E8
:101F00003F912AE0269F11243019305D3193DEF68F
:101F1000CF010895462F4770405D4193B3E00FD045
:101F2000C9F7F6CF462F4F70405D4A3318F0495D30
:101F300031FD4052419302D0A9F7EACFB4E0A69513
:101F40009795879577956795BA95C9F70097610535
:101F5000710508959B01AC010A2E0694579547958B
:101F600037952795BA95C9F7620F731F841F951F80
:101F7000A01D08952F923F924F925F926F927F9291
:101F80008F929F92AF92BF92CF92DF92EF92FF9289
:101F90000F931F93CF93DF93CDB7DEB7CA1BDB0B35
:101FA0000FB6F894DEBF0FBECDBF09942A883988DA
:101FB00048885F846E847D848C849B84AA84B984E1
:101FC000C884DF80EE80FD800C811B81AA81B981ED
:101FD000CE0FD11D0FB6F894DEBF0FBECDBFED0101
:061FE0000895F894FFCF04
:101FE6000000140220008A008C008E0090009200EF
:101FF6009400960098009A009C009E00A000A20003
:10200600C000A400A6000000904037003800390048
:102016002E003400350036007800310032003300DF
:102026002D0020003D002B00527562626572205320
:102036006F6C7574696F6E204D6978657220312EEC
:10204600300057656C636F6D65004E756D62657225
:10205600206F662054726179733F00456E74657215
:1020660020612076616C7565206C657373207468D9
:10207600616E20323000566F6C2E6F6620612054E0
:10208600726179286D6C2900456E74657220612035
:1020960076616C7565206C657373207468616E205B
:1020A60035303030005761746572204C6576656C4A
:1020B600204C6F77210041636964204C6576656C1E
:1020C600204C6F7721004C61746578204C657665ED
:1020D6006C204C6F7721006C69716420656D74000B
:1020E6002566004163767420436F6E7665796F725C
:1020F600004163767420747261792070757368008C
:10210600416376742049522073656E736F72004482
:10211600616374767420436F6E7665796F720062C0
:1021260061636B2074727920707368004163767402
:102136002073747072206D7872004163767420701B
:10214600756D70730041637674206D6978657200F1
:1021560041637674206D6978657220557000456E0E
:0E21660064206F662070726F6772616D0000FA
:00000001FF
