S00D000074657374322E7372656325
S11300000C9457000C94BA010C94D2020C94E204A0
S11300100C9474000C9474000C9474000C9495016A
S11300200C9474000C94C7040C9474000C94740025
S11300300C9474000C9474000C9474000C9474006C
S11300400C9474000C9474000C9474000C9474005C
S11300500C94740008000000BE922449123EABAA1E
S1130060AA2ABECDCCCC4C3E00000080BEABAAAACE
S1130070AA3E00000000BF000000803F0000000016
S113008000084178D3BB4387D1133D190E3CC3BD4F
S11300904282AD2B3E68EC8276BED98FE1A93E4CFC
S11300A080EFFFBE01C4FF7F3F0000000000112469
S11300B01FBECFE5D8E0DEBFCDBF12E0A0E6B0E0C2
S11300C0E6E6FCE102C005900D92A230B107D9F733
S11300D022E0A2E0B2E001C01D92A833B207E1F72A
S11300E00E94C0090C94310E0C94000080E487B97E
S11300F087E886B90895877097B1987F892B87B967
S113010086B1806486B93699FECF84B195B10895DD
S11301101FBC89B7806189BF8EB585608EBD87E0BD
S113012090E09BBD8ABD0895CF92DF92EF92FF923B
S11301300F931F9388B3806288BB0E94880081B3A9
S11301408B7F81BB8FEF82BB81B38B7F81BB80E4CC
S11301508BBF83E085BF7894C8C080910E029091D4
S11301600F02A0911002B091110240911802509117
S1130170190260911A0270911B02841B950BA60B45
S1130180B70B883E9340A105B10508F4AEC0809139
S11301900A0290910B02A0910C02B0910D020196FB
S11301A0A11DB11D80930A0290930B02A0930C022F
S11301B0B0930D0280910A0290910B02A0910C025F
S11301C0B0910D020197A105B10509F08EC0F89414
S11301D080910E0290910F02A0911002B091110231
S11301E0009118021091190220911A0230911B02F9
S11301F0BC01CD01601B710B820B930B0E944A0C56
S11302009B01AC0160E070E08AE794E40E94A20BD9
S11302106B017C01609120027091210280E090E0EA
S11302200E944A0CA70196010E94350D209164009A
S11302303091650040916600509167000E94A20BC6
S113024060932202709323028093240290932502E8
S113025000910E0210910F022091100230911102B0
S1130260009318021093190220931A0230931B0270
S113027020E030E040E752E40E94A20B20E030E0AE
S11302804AE754E40E94350D0E941B0C7093170238
S113029060931602209112023091130240911402CD
S11302A050911502DA01C901860F971FA11DB11DD6
S11302B08093120290931302A0931402B093150238
S11302C010920E0210920F0210921002109211025C
S11302D010920A0210920B0210920C0210920D025C
S11302E010922102109220027894809162009091E1
S11302F06300092E000CAA0BBB0B40911202509113
S11303001302609114027091150284179507A607D1
S1130310B70709F022CF88B38F7D88BB1F910F9157
S1130320FF90EF90DF90CF9008951F920F920FB639
S11303300F9211248F939F93AF93BF9380910E02DA
S113034090910F02A0911002B09111020196A11D8B
S1130350B11D80930E0290930F02A0931002B093EC
S11303601102BF91AF919F918F910F900FBE0F908B
S11303701F9018951F920F920FB60F9211248F930E
S11303809F938091200290912102019690932102E3
S1130390809320029F918F910F900FBE0F901F901A
S11303A01895CF92DF92EF92FF920F931F9388B329
S11303B0806488BB0E94880081B38B7F81BB8FEFF0
S11303C082BB81B3877F81BB80E88BBF8CE085BF14
S11303D07894C8C080910E0290910F02A0911002EF
S11303E0B0911102409118025091190260911A02C1
S11303F070911B02841B950BA60BB70B883E934090
S1130400A105B10508F4AEC080910A0290910B02D7
S1130410A0910C02B0910D020196A11DB11D809313
S11304200A0290930B02A0930C02B0930D028091E8
S11304300A0290910B02A0910C02B0910D02019757
S1130440A105B10509F08EC0F89480910E02909137
S11304500F02A0911002B0911102009118021091A4
S1130460190220911A0230911B02BC01CD01601BBC
S1130470710B820B930B0E944A0C9B01AC0160E050
S113048070E08AE794E40E94A20B6B017C01609106
S11304901E0270911F0280E090E00E944A0CA701A6
S11304A096010E94350D20916400309165004091C1
S11304B06600509167000E94A20B60932202709321
S11304C02302809324029093250200910E0210913E
S11304D00F02209110023091110200931802109320
S11304E0190220931A0230931B0220E030E040E707
S11304F052E40E94A20B20E030E04AE754E40E9458
S1130500350D0E941B0C7093170260931602209104
S11305101202309113024091140250911502DA0133
S1130520C901860F971FA11DB11D809312029093DC
S11305301302A0931402B093150210920E021092AB
S11305400F02109210021092110210920A021092DD
S11305500B0210920C0210920D0210921F021092C4
S11305601E0278948091600090916100092E000C25
S1130570AA0BBB0B4091120250911302609114021A
S11305807091150284179507A607B70709F022CFC3
S113059088B38F7B88BB1F910F91FF90EF90DF9002
S11305A0CF9008951F920F920FB60F9211248F933C
S11305B09F9380911E0290911F02019690931F02B7
S11305C080931E029F918F910F900FBE0F901F90EA
S11305D01895CF92DF92EF92FF920F931F9390930F
S11305E02D0280932C0288B388BB88B388BB88B360
S11305F0806888BB0E94880087B38B7F87BB8FEF9E
S113060088BB87B38B7F87BB80E28BBF80E485BFC9
S11306107894C8C080910E0290910F02A0911002AC
S1130620B0911102409118025091190260911A027E
S113063070911B02841B950BA60BB70B883E93404D
S1130640A105B10508F4AEC080910A0290910B0295
S1130650A0910C02B0910D020196A11DB11D8093D1
S11306600A0290930B02A0930C02B0930D028091A6
S11306700A0290910B02A0910C02B0910D02019715
S1130680A105B10509F08EC0F89480910E029091F5
S11306900F02A0911002B091110200911802109162
S11306A0190220911A0230911B02BC01CD01601B7A
S11306B0710B820B930B0E944A0C9B01AC0160E00E
S11306C070E08AE794E40E94A20B6B017C016091C4
S11306D01C0270911D0280E090E00E944A0CA70168
S11306E096010E94350D209164003091650040917F
S11306F06600509167000E94A20B609322027093DF
S11307002302809324029093250200910E021091FB
S11307100F022091100230911102009318021093DD
S1130720190220931A0230931B0220E030E040E7C4
S113073052E40E94A20B20E030E04AE754E40E9415
S1130740350D0E941B0C70931702609316022091C2
S11307501202309113024091140250911502DA01F1
S1130760C901860F971FA11DB11D8093120290939A
S11307701302A0931402B093150210920E02109269
S11307800F02109210021092110210920A0210929B
S11307900B0210920C0210920D0210921D02109284
S11307A01C02789480912C0290912D02092E000C49
S11307B0AA0BBB0B409112025091130260911402D8
S11307C07091150284179507A607B70709F022CF81
S11307D088B38F7788BB1F910F91FF90EF90DF90C4
S11307E0CF90089587B3826087BB87B38B7F87BB25
S11307F088B38B7F88BB87B3886087BB87B38061EE
S113080087BB83ED90E30197F1F700C0000084B744
S1130810806484BF8AB78F7D8ABF8BB780628BBFA9
S113082089B7846089BF7894089588B3826088BB4F
S113083085E08A95F1F788B38D7F88BB85E08A953A
S1130840F1F708952FE030E030932D0220932C022D
S113085020E030E048E452E40E94D80C181614F466
S113086081E0089580E008958CE090E09093630027
S11308708093620088B3877F88BB88B38F7E88BBF0
S11308800E941504609108027091090280E090E0D2
S11308900E944A0C20E034E244E759E40E94350DFA
S11308A020E034E244E759E40E94A20B20E030E067
S11308B048E652E40E94A20B609302027093030282
S11308C080930402909305022DE030E0309363009E
S11308D0209362000E942204089588B3886088BB34
S11308E088B38F7E88BB0E941504609108027091C2
S11308F0090280E090E00E944A0C20E034E244E7E0
S113090059E40E94350D20E034E244E759E40E94A2
S1130910A20B20E030E048E652E40E94A20B609370
S113092002027093030280930402909305020E94D2
S11309302204089588B3877F88BB88B3806188BB0D
S11309400E941504609108027091090280E090E011
S11309500E944A0C20E034E244E759E40E94350D39
S113096020E034E244E759E40E94A20B20E030E0A6
S113097048E652E40E94A20B6093020270930302C1
S113098080930402909305020E94220408951F920A
S11309900F920FB60F9211248F939F931EBC88EC75
S11309A090E090930902809308021DBC1CBC109235
S11309B00702109206029F918F910F900FBE0F9025
S11309C01F9018951F920F920FB60F9211248F93B8
S11309D09F938BB78F7D8BBF94B780E4892784BFA7
S11309E08AB78F7D8ABF8BB780628BBF80911C02D0
S11309F090911D02019690931D0280931C02809198
S1130A00060290910702892B51F48EB581608EBD48
S1130A1081E090E090930702809306020DC01EBC13
S1130A208CB59DB590930902809308021DBC1CBC33
S1130A3010920702109206029F918F910F900FBEA1
S1130A400F901F90189580EF8ABB8FEF8BBB8BB3F1
S1130A508F708BBB000089B38F7080932E028F3010
S1130A60B1F787E893E10197F1F700C0000089B37B
S1130A708F7080932E028F30A1F38FE097E201975D
S1130A80F1F700C0000089B38F7080932E028F307D
S1130A9041F38FEE8BBB000089B38F7080932E02DD
S1130AA08F3019F010922F0227C08FED8BBB0000FE
S1130AB089B38F7080932E028F3021F081E0809370
S1130AC02F021AC08FEB8BBB000089B38F70809309
S1130AD02E028F3021F082E080932F020DC08FE729
S1130AE08BBB000089B38F7080932E028F3009F482
S1130AF0AACF83E080932F0280912E028E3071F46E
S1130B00E0912F02F0E0EE0FFF1FEE0FFF1FEE0F3C
S1130B10FF1FE859FF4F8081918108958D3071F452
S1130B20E0912F02F0E0EE0FFF1FEE0FFF1FEE0F1C
S1130B30FF1FE859FF4F8281938108958B3071F430
S1130B40E0912F02F0E0EE0FFF1FEE0FFF1FEE0FFC
S1130B50FF1FE859FF4F848195810895E0912F028A
S1130B60F0E0EE0FFF1FEE0FFF1FEE0FFF1FE8591F
S1130B70FF4F86819781089584B38FEF84BB85B33B
S1130B808F7085BB08958FEF81BB12BA0895AC01B5
S1130B9020E030E02AC095B39F70906995BB8BED3F
S1130BA095E00197F1F700C0000095B39F70906C39
S1130BB095BB8BED95E00197F1F700C0000095B36C
S1130BC09F70906695BB8BED95E00197F1F700C09F
S1130BD0000095B39F70906395BB8BED95E00197F2
S1130BE0F1F700C000002F5F3F4F241735079CF238
S1130BF085B38F70806985BB8BED95E00197F1F724
S1130C0000C000000895AC0120E030E02AC095B394
S1130C109F70906395BB8BED95E00197F1F700C051
S1130C20000095B39F70906695BB8BED95E001979E
S1130C30F1F700C0000095B39F70906C95BB8BEDED
S1130C4095E00197F1F700C0000095B39F7090699B
S1130C5095BB8BED95E00197F1F700C000002F5F85
S1130C603F4F241735079CF285B38F70806985BB8D
S1130C708BED95E00197F1F700C000000895AC01F9
S1130C8020E030E02AC092B39F70906992BB8BED54
S1130C9095E00197F1F700C0000092B39F70906C4B
S1130CA092BB8BED95E00197F1F700C0000092B381
S1130CB09F70906692BB8BED95E00197F1F700C0B1
S1130CC0000092B39F70906392BB8BED95E0019707
S1130CD0F1F700C000002F5F3F4F241735079CF247
S1130CE082B38F70806982BB8BED95E00197F1F739
S1130CF000C000000895AC0120E030E02AC092B3A7
S1130D009F70906392BB8BED95E00197F1F700C063
S1130D10000092B39F70906692BB8BED95E00197B3
S1130D20F1F700C0000092B39F70906C92BB8BED02
S1130D3095E00197F1F700C0000092B39F709069AD
S1130D4092BB8BED95E00197F1F700C000002F5F97
S1130D503F4F241735079CF282B38F70806982BBA2
S1130D608BED95E00197F1F700C00000089581B381
S1130D70836081BB82B382BB82B382BB089582B39A
S1130D808C7F82BB089522B3216022BB07C089EF08
S1130D9090E00197F1F700C00000C9019C012150C7
S1130DA03109892BA1F70E94BF06089522B322605E
S1130DB022BB07C089EF90E00197F1F700C0000063
S1130DC0C9019C0121503109892BA1F70E94BF065A
S1130DD008950E94B70684EC99E00E94D60684EC3C
S1130DE099E00E94C3060E94BF06089584B38860F8
S1130DF084BB85B3877F85BB85B3886085BB089535
S1130E0084B3886084BB85B3877F85BB85B3877FC4
S1130E1085BB089580EF84BB8FE085BB08950E9455
S1130E200A079A9BFECF81E090E0089582E680B99C
S1130E3084E086BF11B8089584EA86BF06B607FE2B
S1130E40FDCF089583B984E886BF06B607FEFDCFBB
S1130E50089540E050E00AC02F5F3F4F02C020E0F9
S1130E6030E029373105C4F34F5F5F4F841795078E
S1130E70B4F7089583B1826083B984E886BF06B667
S1130E8007FEFDCF81E090E00E94290783B18D7FAA
S1130E9083B984E886BF06B607FEFDCF089593B1F3
S1130EA09E7F93B994E896BF06B607FEFDCF93B133
S1130EB09F7093B994E896BF06B607FEFDCF93B131
S1130EC0807F892B83B984E886BF06B607FEFDCFF1
S1130ED00E943A070895CF93C82F83B18E7F83B9B8
S1130EE084E886BF06B607FEFDCF83B18F7083B951
S1130EF084E886BF06B607FEFDCF83B19C2F907FA2
S1130F00892B83B984E886BF06B607FEFDCF0E940D
S1130F103A0783B18F7083B984E886BF06B607FEAB
S1130F20FDCF23B130E1C39FC0011124822B83B9CB
S1130F3084E886BF06B607FEFDCF0E943A07CF912C
S1130F40089580E30E944F0780E30E944F0780E2E8
S1130F500E944F0788E20E946B078CE00E946B0797
S1130F6081E00E946B0786E00E946B0780E80E9484
S1130F706B070895CF93C82F83B1816083B984E848
S1130F8086BF06B607FEFDCF83B18F7083B984E8B0
S1130F9086BF06B607FEFDCF83B19C2F907F892BB9
S1130FA083B984E886BF06B607FEFDCF0E943A07E0
S1130FB083B18F7083B984E886BF06B607FEFDCF80
S1130FC023B130E1C39FC0011124822B83B984E88B
S1130FD086BF06B607FEFDCF0E943A07CF9108955B
S1130FE0CF93DF93EC0103C021960E94BA07888156
S1130FF08111FACFDF91CF910895CF93DF930E94AF
S113100016070E941C0780E70E9422070E94A1077E
S113101080E80E946B0786EA90E00E94F00780EC6B
S11310200E946B0784E10E946B0784E10E946B07B6
S113103084E10E946B0784E10E946B0780EC90E0DE
S11310400E94F0072FE986E891E02150804090400B
S1131050E1F700C00000C0E0D0E00AC088E10E94CF
S11310606B0787EA91E60197F1F700C0000021962B
S1131070CB31D1059CF3DF91CF910895EF92FF928C
S11310800F931F93CF93DF93CDB7DEB764970FB65B
S1131090F894DEBF0FBECDBF81E00E946B0780E8ED
S11310A00E946B0788EC90E00E94F00780EC0E949D
S11310B06B078FE00E946B0700E010E00E9423059D
S11310C0BC01CE0101960E94220E62EA70E0CE01BC
S11310D001960E94190E892B01F51016110674F55C
S11310E080E10E946B0780EA90E00E94F00780E1B3
S11310F00E946B0780E10E946B0784E10E946B07EA
S113110001501109EBE0F0E0EC0FFD1FE00FF11FBF
S113111080E290E09183808311C0CE0101960E9409
S1131120F007BE016F5F7F4F8BE090E08C0F9D1F37
S1131130800F911F0E94220E0F5F1F4F60EA70E024
S1131140CE0101960E94190E7C01CE010B960E94DD
S1131150FB0DAC0121E0EF2809F420E091E04115FA
S1131160510509F090E0922B09F0A8CF50932B027F
S113117040932A0281E00E946B0780E80E946B077B
S113118080912A0290912B0284319105FCF089ED23
S113119090E00E94F0072FE986E891E0215080401A
S11311A09040E1F700C0000000E010E00BC088E1CF
S11311B00E946B0787EA91E60197F1F700C00000EF
S11311C00F5F1F4F0B31110594F366CF64960FB672
S11311D0F894DEBF0FBECDBFDF91CF911F910F9169
S11311E0FF90EF900895CF92DF92EF92FF920F93CA
S11311F01F93CF93DF93CDB7DEB764970FB6F89400
S1131200DEBF0FBECDBF84EF90E00E94F00780ECFC
S11312100E946B078FE00E946B0700E010E00E94C1
S11312202305BC01CE0101960E94220E62EA70E001
S1131230CE0101960E94190E892B01F51016110694
S113124074F580E10E946B0780EA90E00E94F00749
S113125080E10E946B0780E10E946B0784E10E9499
S11312606B0701501109EBE0F0E0EC0FFD1FE00FFC
S1131270F11F80E290E09183808311C0CE0101963A
S11312800E94F007BE016F5F7F4F8BE090E08C0FF0
S11312909D1F800F911F0E94220E0F5F1F4F60EA57
S11312A070E0CE0101960E94190E7C01CE010B96CE
S11312B00E94FB0DBC0121E0EF2809F420E091E03D
S11312C06115710509F090E0922B09F0A8CF072E63
S11312D0000C880B990B0E944C0C609326027093AF
S11312E02702809328029093290281E00E946B07D1
S11312F080E80E946B07C0902602D0902702E090FD
S11313002802F090290220E030E44CE955E4C701BA
S1131310B6010E94D80C8823FCF086E091E00E947C
S1131320F0072FE986E891E0215080409040E1F7F2
S113133000C0000000E010E00BC088E10E946B07D1
S113134087EA91E60197F1F700C000000F5F1F4F95
S11313500C31110594F357CFC701B6010E94140C48
S1131360CB0164960FB6F894DEBF0FBECDBFDF91FC
S1131370CF911F910F91FF90EF90DF90CF90089540
S11313804F925F926F927F928F929F92AF92BF9291
S1131390CF92DF92EF92FF920F931F93CF93DF933D
S11313A00E94FD070E943E08EC010E94F3088C0194
S11313B00E94F20343C181E00E946B0780E80E940F
S11313C06B0785E591E00E94F0070E9434048111C7
S11313D0F2CF0AC081E00E946B0780E80E946B078D
S11313E081E691E00E94F0070E946D048111F2CF22
S11313F00AC081E00E946B0780E80E946B078DE6BB
S113140091E00E94F0070E949A048111F2CF0E9499
S1131410760083E00E947B0090933702809336022B
S1131420BC01990F880B990B0E944C0C20E030E012
S113143040E65CE30E94350D4B015C01609332028F
S1131440709333028093340290933502B801012ED5
S1131450000C880B990B0E944C0C6B017C01C5019C
S1131460B4010E94DD0C2B013C0120E030E04AE78E
S113147054E4C701B6010E94350D20E23CEB4EEB6B
S11314805CE40E94350D4B015C01A3019201C7018C
S1131490B6010E94350D9B01AC01C501B4010E9447
S11314A0360B2AE037ED43E25CE30E94A20B6B01AA
S11314B07C0181E00E946B0780E80E946B0788E74B
S11314C091E00E94F0070E94F60681E00E946B07FB
S11314D080E80E946B0786E891E00E94F0070E9472
S11314E0BC0584E690E00E94C70581E00E946B077A
S11314F080E80E946B0785E991E00E94F0070E9452
S11315000F07892BE1F380E80E946B0784EA91E0DE
S11315100E94F00780EC0E946B070E94000781E0A4
S11315200E946B0780E80E946B0784EB91E00E94A5
S1131530F0070E94BC0584E690E00E94030681E067
S11315400E946B0780E80E946B0781EC91E00E9487
S1131550F0070E94C30584E690E00E943F0681E004
S11315600E946B0780E80E946B078FEC91E00E9459
S1131570F0070E9494000E94D101C701B6010E94A5
S1131580140CCB010E94E90281E00E946B0780E801
S11315900E946B078AED91E00E94F0070E94E90621
S11315A081E00E946B0780E80E946B0785EE91E062
S11315B00E94F0070E94C30584E690E00E947B0627
S11315C081E00E946B0780E80E946B0788E791E046
S11315D00E94F0070E94F60621972FE382E49FE021
S11315E0215080409040E1F700C0000081E00E945B
S11315F06B0780E80E946B0784EA91E00E94F00781
S11316000E9400072FE78AE196E021508040904035
S1131610E1F700C0000081E00E946B0780E80E94AF
S11316206B0783EF91E00E94F0072FE78AE196E0D1
S1131630215080409040E1F700C000001C161D06B8
S11316400CF4C3CE80E090E0DF91CF911F910F9115
S1131650FF90EF90DF90CF90BF90AF909F908F90CE
S11316607F906F905F904F9008955058BB27AA27A2
S11316700E944D0B0C949E0C0E94900C38F00E941A
S1131680970C20F039F49F3F19F426F40C948D0C38
S11316900EF4E095E7FB0C94870CE92F0E94AF0C45
S11316A058F3BA17620773078407950720F079F493
S11316B0A6F50C94D10C0EF4E0950B2EBA2FA02DA8
S11316C00B01B90190010C01CA01A0011124FF27EB
S11316D0591B99F0593F50F4503E68F11A16F040E6
S11316E0A22F232F342F4427585FF3CF46953795E5
S11316F02795A795F0405395C9F77EF41F16BA0BAA
S1131700620B730B840BBAF09150A1F0FF0FBB1F57
S1131710661F771F881FC2F70EC0BA0F621F731FA0
S1131720841F48F4879577956795B795F7959E3FFD
S113173008F0B0CF9395880F08F09927EE0F97958E
S1131740879508950E94B60B0C949E0C0E94970CEA
S113175058F00E94900C40F029F45F3F29F00C945B
S1131760870C51110C94D20C0C948D0C0E94AF0C6C
S113177068F39923B1F3552391F3951B550BBB27BC
S1131780AA2762177307840738F09F5F5F4F220F01
S1131790331F441FAA1FA9F335D00E2E3AF0E0E8F8
S11317A032D091505040E695001CCAF72BD0FE2F42
S11317B029D0660F771F881FBB1F261737074807D6
S11317C0AB07B0E809F0BB0B802DBF01FF2793588E
S11317D05F4F3AF09E3F510578F00C94870C0C94BF
S11317E0D20C5F3FE4F3983ED4F3869577956795E2
S11317F0B795F7959F5FC9F7880F911D96958795C3
S113180097F90895E1E0660F771F881FBB1F6217E1
S113181073078407BA0720F0621B730B840BBA0B9F
S1131820EE1F88F7E09508950E941B0C6894B1118F
S11318300C94D20C08950E94B70C88F09F5798F02E
S1131840B92F9927B751B0F0E1F0660F771F881FC1
S1131850991F1AF0BA95C9F714C0B13091F00E94DB
S1131860D10CB1E008950C94D10C672F782F882700
S1131870B85F39F0B93FCCF3869577956795B39502
S1131880D9F73EF490958095709561957F4F8F4F71
S11318909F4F0895E89409C097FB3EF49095809576
S11318A0709561957F4F8F4F9F4F9923A9F0F92F22
S11318B096E9BB279395F695879577956795B795A0
S11318C0F111F8CFFAF4BB0F11F460FF1BC06F5F86
S11318D07F4F8F4F9F4F16C0882311F096E911C098
S11318E0772321F09EE8872F762F05C0662371F0B9
S11318F096E8862F70E060E02AF09A95660F771FCD
S1131900881FDAF7880F9695879597F9089597F9C0
S11319109F6780E870E060E008959FEF80EC089591
S113192000240A94161617061806090608950024BA
S11319300A9412161306140605060895092E039434
S1131940000C11F4882352F0BB0F40F4BF2B11F4A8
S113195060FF04C06F5F7F4F8F4F9F4F089557FD07
S11319609058440F551F59F05F3F71F04795880F09
S113197097FB991F61F09F3F79F0879508951216A0
S113198013061406551FF2CF4695F1DF08C016164C
S113199017061806991FF1CF8695710561050894FD
S11319A00895E894BB2766277727CB0197F9089514
S11319B00E94A20D08F48FEF08950E94ED0C29ED0A
S11319C03BE54EED5EE30C94350D16F00C94C60D1C
S11319D00C948D0C68940C94870C0E94B70CA8F39B
S11319E09923C1F3AEF3DF93CF931F930F93FF9229
S11319F0C92FDD2788232AF02197660F771F881FB8
S1131A00DAF720E030E040E85FEB9FE3883920F02C
S1131A10803E38F021968F770E94360BE4E5F0E0A3
S1131A2004C00E94360BE1E8F0E00E94D40D8B0163
S1131A30BE01EC01FB2E6F5771097595771F880B5A
S1131A40990B0E944C0C28E132E741E35FE30E94CA
S1131A50480DAF2D9801AE01FF900F911F91CF91CA
S1131A60DF910E944D0B0C949E0C0E94480D0C9427
S1131A709E0C0E94900C38F00E94970C20F0952345
S1131A8011F00C94870C0C948D0C11240C94D20C32
S1131A900E94AF0C70F3959FC1F3950F50E0551F52
S1131AA0629FF001729FBB27F00DB11D639FAA27AF
S1131AB0F00DB11DAA1F649F6627B00DA11D661FFE
S1131AC0829F2227B00DA11D621F739FB00DA11D1F
S1131AD0621F839FA00D611D221F749F3327A00DD9
S1131AE0611D231F849F600D211D822F762F6A2F75
S1131AF011249F5750409AF0F1F088234AF0EE0FDA
S1131B00FF1FBB1F661F771F881F91505040A9F706
S1131B109E3F510580F00C94870C0C94D20C5F3FCF
S1131B20E4F3983ED4F3869577956795B795F79542
S1131B30E7959F5FC1F7FE2B880F911D96958795BA
S1131B4097F90895990F0008550FAA0BE0E8FEEFE6
S1131B5016161706E807F907C0F012161306E4076D
S1131B60F50798F0621B730B840B950B39F40A2666
S1131B7061F0232B242B252B21F408950A2609F444
S1131B80A140A6958FEF811D811D08959F3F31F0DF
S1131B90915020F4879577956795B795880F911D97
S1131BA09695879597F90895DF93CF931F930F9395
S1131BB0FF92EF92DF927B018C01689406C0DA2ECB
S1131BC0EF010E94480DFE01E894A59125913591FD
S1131BD045915591A6F3EF010E944D0BFE0197012B
S1131BE0A801DA9469F7DF90EF90FF900F911F91AD
S1131BF0CF91DF910895FC0188279927E8942191DA
S1131C002032E9F3293010F02E30C8F32B3241F0A2
S1131C102D3239F4689404C00E94290E820F911D5C
S1131C20219120532A30C0F31EF4909581959F4F43
S1131C300895FB01DC018D91019080190110D9F305
S1131C40990B0895FB01DC0101900D920020E1F74E
S1131C5008957AE0979F902D879F802D910D1124F0
S1091C600895F894FFCF83
S1131C66E803E8030000904088008A008C008E0098
S1131C76900092009400960098009A009C009E00A2
S1131C86A000BE00A200A4003700380039002E00D0
S1131C9634003500360078003100320033002D0060
S1131CA620003D002B0052756262657220536F6CF2
S1131CB67574696F6E204D6978657220312E300017
S1131CC657656C636F6D65004E756D626572206F46
S1131CD6662054726179733F00456E7465722061A3
S1131CE62076616C7565206C657373207468616E0B
S1131CF620323000566F6C2E6F662061205472615C
S1131D0679286D6C2900456E7465722061207661B0
S1131D166C7565206C657373207468616E2035304C
S1131D263030005761746572204C6576656C204CC2
S1131D366F77210041636964204C6576656C204C9D
S1131D466F7721004C61746578204C6576656C204C
S1131D564C6F772100776174657220656D707479B4
S1131D66006C6174657820656D70747900616369CF
S1131D766420656D707479004163767420436F6ED8
S1131D867665796F72004163767420747261792086
S1131D967075736800416376742049522073656ECA
S1131DA6736F720044616374767420436F6E766554
S1131DB6796F72006261636B207472792070736844
S1131DC600416376742073747072206D78720041DA
S1131DD66376742070756D70730041637674206D3C
S1131DE6697865720041637674206D69786572203E
S1131DF6557000456E64206F662070726F6772615D
S1051E066D0069
S9030000FC
