S00D000074657374322E7372656325
S11300000C942A000C947B010C9493020C949F048E
S11300100C9447000C9447000C9447000C94560130
S11300200C9447000C9484040C9447000C944700EF
S11300300C9447000C9447000C9447000C94470020
S11300400C9447000C9447000C9447000C94470010
S11300500C94470011241FBECFE5D8E0DEBFCDBF0E
S113006011E0A0E6B0E0ECE2F9E102C005900D92E7
S1130070AC3FB107D9F722E0ACEFB1E001C01D926B
S1130080AE32B207E1F70E947D090C94940C0C94F3
S113009000001FBC89B7806189BF8EB585608EBDA5
S11300A087E090E09BBD8ABD0895CF92DF92EF92E6
S11300B0FF920F931F9388B3806288BB0E9449000C
S11300C081B38B7F81BB8FEF82BB81B38B7F81BB7D
S11300D080E48BBF83E085BF7894C8C08091080218
S11300E090910902A0910A02B0910B024091120270
S11300F0509113026091140270911502841B950BA8
S1130100A60BB70B883E9340A105B10508F4AEC019
S11301108091040290910502A0910602B091070219
S11301200196A11DB11D8093040290930502A09332
S11301300602B09307028091040290910502A091F7
S11301400602B09107020197A105B10509F08EC01E
S1130150F8948091080290910902A0910A02B0914A
S11301600B0200911202109113022091140230919B
S11301701502BC01CD01601B710B820B930B0E9415
S11301803A0B9B01AC0160E070E08AE794E40E94C2
S1130190920A6B017C0160911A0270911B0280E04B
S11301A090E00E943A0BA70196010E94CD0B20918A
S11301B060003091610040916200509163000E94A0
S11301C0920A60931C0270931D0280931E02909306
S11301D01F02009108021091090220910A02309135
S11301E00B02009312021093130220931402309313
S11301F0150220E030E040E752E40E94920A20E039
S113020030E04AE754E40E94CD0B0E940B0B70933C
S113021011026093100220910C0230910D02409162
S11302200E0250910F02DA01C901860F971FA11D1A
S1130230B11D80930C0290930D02A0930E02B09313
S11302400F02109208021092090210920A021092F0
S11302500B021092040210920502109206021092F0
S1130260070210921B0210921A02789480912A02BB
S113027090912B02092E000CAA0BBB0B40910C028F
S113028050910D0260910E0270910F028417950730
S1130290A607B70709F022CF88B38F7D88BB1F91CB
S11302A00F91FF90EF90DF90CF9008951F920F92DF
S11302B00FB60F9211248F939F93AF93BF938091A6
S11302C0080290910902A0910A02B0910B020196D2
S11302D0A11DB11D8093080290930902A0930A0204
S11302E0B0930B02BF91AF919F918F910F900FBE6E
S11302F00F901F9018951F920F920FB60F92112412
S11303008F939F9380911A0290911B020196909370
S11303101B0280931A029F918F910F900FBE0F9032
S11303201F901895CF92DF92EF92FF920F931F9335
S113033088B3806488BB0E94490081B38B7F81BBF2
S11303408FEF82BB81B3877F81BB80E88BBF8CE05A
S113035085BF7894C8C08091080290910902A09149
S11303600A02B0910B024091120250911302609163
S1130370140270911502841B950BA60BB70B883ED3
S11303809340A105B10508F4AEC080910402909198
S11303900502A0910602B09107020196A11DB11DAC
S11303A08093040290930502A0930602B09307027F
S11303B08091040290910502A0910602B091070277
S11303C00197A105B10509F08EC0F8948091080247
S11303D090910902A0910A02B0910B0200911202BD
S11303E0109113022091140230911502BC01CD0129
S11303F0601B710B820B930B0E943A0B9B01AC01A7
S113040060E070E08AE794E40E94920A6B017C0148
S1130410609118027091190280E090E00E943A0BFA
S1130420A70196010E94CD0B2091600030916100DC
S113043040916200509163000E94920A60931C02F2
S113044070931D0280931E0290931F020091080274
S11304501091090220910A0230910B0200931202BA
S113046010931302209314023093150220E030E01D
S113047040E752E40E94920A20E030E04AE754E464
S11304800E94CD0B0E940B0B70931102609310021B
S113049020910C0230910D0240910E0250910F02F6
S11304A0DA01C901860F971FA11DB11D80930C02AB
S11304B090930D02A0930E02B0930F0210920802C3
S11304C01092090210920A0210920B021092040276
S11304D0109205021092060210920702109219025D
S11304E01092180278948091260290912702092E86
S11304F0000CAA0BBB0B40910C0250910D026091B1
S11305000E0270910F0284179507A607B70709F02A
S113051022CF88B38F7B88BB1F910F91FF90EF9000
S1130520DF90CF9008951F920F920FB60F9211246F
S11305308F939F9380911802909119020196909342
S11305401902809318029F918F910F900FBE0F9004
S11305501F901895CF92DF92EF92FF920F931F9303
S113056088B388BB88B388BB88B3806888BB0E9483
S1130570490087B38B7F87BB8FEF88BB87B38B7FA3
S113058087BB80E28BBF80E485BF7894C8C080912C
S1130590080290910902A0910A02B0910B024091C5
S11305A01202509113026091140270911502841B7F
S11305B0950BA60BB70B883E9340A105B10508F433
S11305C0AEC08091040290910502A0910602B09100
S11305D007020196A11DB11D8093040290930502A8
S11305E0A0930602B0930702809104029091050241
S11305F0A0910602B09107020197A105B10509F087
S11306008EC0F8948091080290910902A0910A0288
S1130610B0910B0200911202109113022091140266
S113062030911502BC01CD01601B710B820B930B41
S11306300E943A0B9B01AC0160E070E08AE794E40D
S11306400E94920A6B017C0160911602709117025C
S113065080E090E00E943A0BA70196010E94CD0B26
S113066020916000309161004091620050916300DC
S11306700E94920A60931C0270931D0280931E02D2
S113068090931F02009108021091090220910A021E
S113069030910B0200931202109313022093140260
S11306A03093150220E030E040E752E40E94920AC1
S11306B020E030E04AE754E40E94CD0B0E940B0B8B
S11306C0709311026093100220910C0230910D027C
S11306D040910E0250910F02DA01C901860F971F53
S11306E0A11DB11D80930C0290930D02A0930E02E4
S11306F0B0930F02109208021092090210920A029B
S113070010920B021092040210920502109206023B
S11307101092070210921702109216027894809198
S1130720280290912902092E000CAA0BBB0B4091C0
S11307300C0250910D0260910E0270910F02841709
S11307409507A607B70709F022CF88B38F7788BB30
S11307501F910F91FF90EF90DF90CF90089587B392
S1130760826087BB87B38B7F87BB88B38B7F88BB53
S113077087B3886087BB87B3806187BB83ED90E3D1
S11307800197F1F700C0000084B7806484BF8AB782
S11307908F7D8ABF8BB780628BBF89B7846089BF26
S11307A07894089588B3826088BB85E08A95F1F7D0
S11307B088B38D7F88BB85E08A95F1F708952FE093
S11307C030E0309329022093280220E030E048E40E
S11307D052E40E94C80B181614F481E0089580E0D6
S11307E008958CE090E090932B0280932A0288B3C2
S11307F0877F88BB88B38F7E88BB0E94D2036091B9
S113080002027091030280E090E00E943A0B20E023
S113081034E244E759E40E94CD0B20E034E244E79B
S113082059E40E94920A20E030E048E652E40E9433
S1130830920A6093FC017093FD018093FE019093F2
S1130840FF012DE030E030932B0220932A020E9416
S1130850DF03089588B3886088BB88B38F7E88BB24
S11308600E94D203609102027091030280E090E042
S11308700E943A0B20E034E244E759E40E94CD0B95
S113088020E034E244E759E40E94920A20E030E098
S113089048E652E40E94920A6093FC017093FD01C1
S11308A08093FE019093FF010E94DF03089588B3B3
S11308B0877F88BB88B3806188BB0E94D203609124
S11308C002027091030280E090E00E943A0B20E063
S11308D034E244E759E40E94CD0B20E034E244E7DB
S11308E059E40E94920A20E030E048E652E40E9473
S11308F0920A6093FC017093FD018093FE01909332
S1130900FF010E94DF0308951F920F920FB60F920A
S113091011248F939F931EBC88EC90E09093030264
S1130920809302021DBC1CBC1092010210920002B2
S11309309F918F910F900FBE0F901F9018951F924B
S11309400F920FB60F9211248F939F938BB78F7DC5
S11309508BBF94B780E4892784BF8AB78F7D8ABF11
S11309608BB780628BBF809116029091170201961B
S113097090931702809316028091000290910102D5
S1130980892B51F48EB581608EBD81E090E0909307
S11309900102809300020DC01EBC8CB59DB59093DE
S11309A00302809302021DBC1CBC1092010210922F
S11309B000029F918F910F900FBE0F901F9018957A
S11309C080EF8ABB8FEF8BBB8BB38F708BBB000028
S11309D089B38F7080932C028F30B1F787E893E14D
S11309E00197F1F700C0000089B38F7080932C0247
S11309F08F30A1F38FE097E20197F1F700C0000078
S1130A0089B38F7080932C028F3041F38FEE8BBBB0
S1130A10000089B38F7080932C028F3019F01092EC
S1130A202D0227C08FED8BBB000089B38F7080939C
S1130A302C028F3021F081E080932D021AC08FEBBD
S1130A408BBB000089B38F7080932C028F3021F010
S1130A5082E080932D020DC08FE78BBB000089B329
S1130A608F7080932C028F3009F4AACF83E0809397
S1130A702D0280912C028E3071F4E0912D02F0E071
S1130A80EE0FFF1FEE0FFF1FEE0FFF1FEC59FF4F7E
S1130A908081918108958D3071F4E0912D02F0E010
S1130AA0EE0FFF1FEE0FFF1FEE0FFF1FEC59FF4F5E
S1130AB08281938108958B3071F4E0912D02F0E0EE
S1130AC0EE0FFF1FEE0FFF1FEE0FFF1FEC59FF4F3E
S1130AD0848195810895E0912D02F0E0EE0FFF1FCF
S1130AE0EE0FFF1FEE0FFF1FEC59FF4F868197811A
S1130AF0089584B38FEF84BB85B38F7085BB08954D
S1130B008FEF81BB12BA0895AC0120E030E02AC017
S1130B1095B39F70906995BB8BED95E00197F1F7C4
S1130B2000C0000095B39F70906C95BB8BED95E071
S1130B300197F1F700C0000095B39F70906695BBD4
S1130B408BED95E00197F1F700C0000095B39F701D
S1130B50906395BB8BED95E00197F1F700C0000021
S1130B602F5F3F4F241735079CF285B38F70806940
S1130B7085BB8BED95E00197F1F700C00000089567
S1130B80AC0120E030E02AC095B39F70906395BB20
S1130B908BED95E00197F1F700C0000095B39F70CD
S1130BA0906695BB8BED95E00197F1F700C00000CE
S1130BB095B39F70906C95BB8BED95E00197F1F721
S1130BC000C0000095B39F70906995BB8BED95E0D4
S1130BD00197F1F700C000002F5F3F4F241735073E
S1130BE09CF285B38F70806985BB8BED95E001978E
S1130BF0F1F700C000000895AC0120E030E02AC005
S1130C0092B39F70906992BB8BED95E00197F1F7D9
S1130C1000C0000092B39F70906C92BB8BED95E086
S1130C200197F1F700C0000092B39F70906692BBE9
S1130C308BED95E00197F1F700C0000092B39F702F
S1130C40906392BB8BED95E00197F1F700C0000033
S1130C502F5F3F4F241735079CF282B38F70806952
S1130C6082BB8BED95E00197F1F700C00000089579
S1130C70AC0120E030E02AC092B39F70906392BB35
S1130C808BED95E00197F1F700C0000092B39F70DF
S1130C90906692BB8BED95E00197F1F700C00000E0
S1130CA092B39F70906C92BB8BED95E00197F1F736
S1130CB000C0000092B39F70906992BB8BED95E0E9
S1130CC00197F1F700C000002F5F3F4F241735074D
S1130CD09CF282B38F70806982BB8BED95E00197A3
S1130CE0F1F700C00000089581B3836081BB82B333
S1130CF082BB82B382BB089582B38C7F82BB08958A
S1130D0022B3216022BB07C089EF90E00197F1F77D
S1130D1000C00000C9019C0121503109892BA1F7B1
S1130D200E947C06089522B3226022BB07C089EF8B
S1130D3090E00197F1F700C00000C9019C01215027
S1130D403109892BA1F70E947C0608950E9474063C
S1130D5084EC99E00E94930684EC99E00E9480065A
S1130D600E947C06089584B3886084BB85B3877F22
S1130D7085BB85B3886085BB089584B3886084BBD4
S1130D8085B3877F85BB85B3877F85BB089580EF57
S1130D9084BB8FE085BB08950E94C7069A9BFECF53
S1130DA081E090E0089582E680B984E086BF11B8BE
S1130DB0089584EA86BF06B607FEFDCF089583B979
S1130DC084E886BF06B607FEFDCF089540E050E0F4
S1130DD00AC02F5F3F4F02C020E030E029373105C1
S1130DE0C4F34F5F5F4F84179507B4F7089583B139
S1130DF0826083B984E886BF06B607FEFDCF81E032
S1130E0090E00E94E60683B18D7F83B984E886BFB3
S1130E1006B607FEFDCF089593B19E7F93B994E87B
S1130E2096BF06B607FEFDCF93B19F7093B994E8C1
S1130E3096BF06B607FEFDCF93B1807F892B83B999
S1130E4084E886BF06B607FEFDCF0E94F706089524
S1130E50CF93C82F83B18E7F83B984E886BF06B64B
S1130E6007FEFDCF83B18F7083B984E886BF06B6D1
S1130E7007FEFDCF83B19C2F907F892B83B984E833
S1130E8086BF06B607FEFDCF0E94F70683B18F70BA
S1130E9083B984E886BF06B607FEFDCF23B130E1EF
S1130EA0C39FC0011124822B83B984E886BF06B690
S1130EB007FEFDCF0E94F706CF91089580E30E94BC
S1130EC00C0780E30E940C0780E20E940C0788E272
S1130ED00E9428078CE00E94280781E00E942807CE
S1130EE086E00E94280780E80E9428070895CF938F
S1130EF0C82F83B1816083B984E886BF06B607FE34
S1130F00FDCF83B18F7083B984E886BF06B607FE30
S1130F10FDCF83B19C2F907F892B83B984E886BF52
S1130F2006B607FEFDCF0E94F70683B18F7083B922
S1130F3084E886BF06B607FEFDCF23B130E1C39F28
S1130F40C0011124822B83B984E886BF06B607FE4C
S1130F50FDCF0E94F706CF910895CF93DF93EC0164
S1130F6003C021960E94770788818111FACFDF910F
S1130F70CF910895CF93DF930E94D3060E94D906A0
S1130F8080E70E94DF060E945E0780E80E9428072F
S1130F908CE990E00E94AD0780EC0E94280784E170
S1130FA00E94280784E10E94280784E10E94280700
S1130FB084E10E94280786EB90E00E94AD072FE9A8
S1130FC086E891E0215080409040E1F700C00000A5
S1130FD0C0E0D0E00AC088E10E94280787EA91E6D1
S1130FE00197F1F700C000002196CB31D1059CF3A5
S1130FF0DF91CF910895EF92FF920F931F93CF93B8
S1131000DF93CDB7DEB764970FB6F894DEBF0FBE9B
S1131010CDBF81E00E94280780E80E9428078EEB5C
S113102090E00E94AD0780EC0E9428078FE00E94A8
S1131030280700E010E00E94E004BC01CE01019604
S11310400E94850C68E970E0CE0101960E947C0C38
S1131050892B01F51016110674F580E10E9428070A
S113106086E990E00E94AD0780E10E94280780E1B4
S11310700E94280784E10E94280701501109EBE02F
S1131080F0E0EC0FFD1FE00FF11F80E290E0918390
S1131090808311C0CE0101960E94AD07BE016F5F2F
S11310A07F4F8BE090E08C0F9D1F800F911F0E945B
S11310B0850C0F5F1F4F66E970E0CE0101960E9418
S11310C07C0C7C01CE010B960E945E0CAC0121E0ED
S11310D0EF2809F420E091E04115510509F090E072
S11310E0922B09F0A8CF509325024093240281E06B
S11310F00E94280780E80E9428078091240290918A
S1131100250284319105FCF08FEC90E00E94AD073C
S11311102FE986E891E0215080409040E1F700C03B
S1131120000000E010E00BC088E10E94280787EA75
S113113091E60197F1F700C000000F5F1F4F0B31DC
S1131140110594F366CF64960FB6F894DEBF0FBE14
S1131150CDBFDF91CF911F910F91FF90EF90089534
S1131160CF92DF92EF92FF920F931F93CF93DF936F
S1131170CDB7DEB764970FB6F894DEBF0FBECDBF10
S11311808AEE90E00E94AD0780EC0E9428078FE071
S11311900E94280700E010E00E94E004BC01CE0198
S11311A001960E94850C68E970E0CE0101960E94C8
S11311B07C0C892B01F51016110674F580E10E9450
S11311C0280786E990E00E94AD0780E10E94280785
S11311D080E10E94280784E10E9428070150110938
S11311E0EBE0F0E0EC0FFD1FE00FF11F80E290E078
S11311F09183808311C0CE0101960E94AD07BE0188
S11312006F5F7F4F8BE090E08C0F9D1F800F911FCD
S11312100E94850C0F5F1F4F66E970E0CE010196B6
S11312200E947C0C7C01CE010B960E945E0CBC01DA
S113123021E0EF2809F420E091E06115710509F03F
S113124090E0922B09F0A8CF072E000C880B990B85
S11312500E943C0B6093200270932102809322022F
S11312609093230281E00E94280780E80E942807C7
S1131270C0902002D0902102E0902202F09023023C
S113128020E030E44CE955E4C701B6010E94C80BE4
S11312908823FCF08CEF90E00E94AD072FE986E8EC
S11312A091E0215080409040E1F700C0000000E050
S11312B010E00BC088E10E94280787EA91E60197B5
S11312C0F1F700C000000F5F1F4F0C31110594F3BC
S11312D057CFC701B6010E94040BCB0164960FB629
S11312E0F894DEBF0FBECDBFDF91CF911F910F9158
S11312F0FF90EF90DF90CF900895CF93DF930E94FB
S1131300BA070E94FB07EC010E94B0080E94AF03D9
S113131000C181E00E94280780E80E9428078BE42E
S113132091E00E94AD072FE38DE093E021508040CF
S11313309040E1F700C000000AC081E00E94280745
S113134080E80E94280784E591E00E94AD070E948E
S1131350F103882391F30AC081E00E94280780E802
S11313600E9428078EE591E00E94AD070E942A049E
S11313708111F2CF0AC081E00E94280780E80E9410
S1131380280788E691E00E94AD070E945704811166
S1131390F2CF81E00E94280780E80E94280782E7B4
S11313A091E00E94AD070E94B30681E00E942807E5
S11313B080E80E94280780E891E00E94AD070E941F
S11313C0790584E690E00E94840581E00E94280764
S11313D080E80E9428078FE891E00E94AD070E94F0
S11313E0CC06892BE1F380E80E9428078EE991E07E
S11313F00E94AD0780EC0E9428070E94BD0681E090
S11314000E94280780E80E9428078EEA91E00E9443
S1131410AD070E94790584E690E00E94C00581E052
S11314200E94280780E80E9428078BEB91E00E9425
S1131430AD070E94800584E690E00E94FC0581E0EF
S11314400E94280780E80E94280789EC91E00E9406
S1131450AD070E9455000E9492010E94AA0281E0F9
S11314600E94280780E80E94280784ED91E00E94EA
S1131470AD070E94A60681E00E94280780E80E942A
S113148028078FED91E00E94AD070E94800584E655
S113149090E00E94380681E00E94280780E80E94BC
S11314A0280782E791E00E94AD070E94B3062197C6
S11314B02FE382E49FE0215080409040E1F700C098
S11314C0000081E00E94280780E80E9428078EE936
S11314D091E00E94AD070E94BD062FE78AE196E0E5
S11314E0215080409040E1F700C0000081E00E945C
S11314F0280780E80E9428078DEE91E00E94AD073E
S11315002FE78AE196E0215080409040E1F700C047
S113151000001C161D060CF4FCCE80E090E0DF9168
S1131520CF9108950E94A60A0C948E0B0E94870BFB
S113153058F00E94800B40F029F45F3F29F00C948E
S1131540770B51110C94C20B0C947D0B0E949F0BD2
S113155068F39923B1F3552391F3951B550BBB27DE
S1131560AA2762177307840738F09F5F5F4F220F23
S1131570331F441FAA1FA9F335D00E2E3AF0E0E81A
S113158032D091505040E695001CCAF72BD0FE2F64
S113159029D0660F771F881FBB1F261737074807F8
S11315A0AB07B0E809F0BB0B802DBF01FF279358B0
S11315B05F4F3AF09E3F510578F00C94770B0C94F2
S11315C0C20B5F3FE4F3983ED4F386957795679515
S11315D0B795F7959F5FC9F7880F911D96958795E5
S11315E097F90895E1E0660F771F881FBB1F621704
S11315F073078407BA0720F0621B730B840BBA0BC2
S1131600EE1F88F7E09508950E940B0B6894B111C2
S11316100C94C20B08950E94A70B88F09F5798F072
S1131620B92F9927B751B0F0E1F0660F771F881FE3
S1131630991F1AF0BA95C9F714C0B13091F00E94FD
S1131640C10BB1E008950C94C10B672F782F882744
S1131650B85F39F0B93FCCF3869577956795B39524
S1131660D9F73EF490958095709561957F4F8F4F93
S11316709F4F0895E89409C097FB3EF49095809598
S1131680709561957F4F8F4F9F4F9923A9F0F92F44
S113169096E9BB279395F695879577956795B795C2
S11316A0F111F8CFFAF4BB0F11F460FF1BC06F5FA8
S11316B07F4F8F4F9F4F16C0882311F096E911C0BA
S11316C0772321F09EE8872F762F05C0662371F0DB
S11316D096E8862F70E060E02AF09A95660F771FEF
S11316E0881FDAF7880F9695879597F9089597F9E3
S11316F09F6780E870E060E008959FEF80EC0895B4
S113170000240A94161617061806090608950024DC
S11317100A9412161306140605060895092E039456
S1131720000C11F4882352F0BB0F40F4BF2B11F4CA
S113173060FF04C06F5F7F4F8F4F9F4F089557FD29
S11317409058440F551F59F05F3F71F04795880F2B
S113175097FB991F61F09F3F79F0879508951216C2
S113176013061406551FF2CF4695F1DF08C016166E
S113177017061806991FF1CF86957105610508941F
S11317800895E894BB2766277727CB0197F9089536
S11317900E943A0C08F48FEF08950E94E00B0C9419
S11317A08E0B0E94800B38F00E94870B20F095234B
S11317B011F00C94770B0C947D0B11240C94C20B38
S11317C00E949F0B70F3959FC1F3950F50E0551F36
S11317D0629FF001729FBB27F00DB11D639FAA2782
S11317E0F00DB11DAA1F649F6627B00DA11D661FD1
S11317F0829F2227B00DA11D621F739FB00DA11DF2
S1131800621F839FA00D611D221F749F3327A00DAB
S1131810611D231F849F600D211D822F762F6A2F47
S113182011249F5750409AF0F1F088234AF0EE0FAC
S1131830FF1FBB1F661F771F881F91505040A9F7D9
S11318409E3F510580F00C94770B0C94C20B5F3FC4
S1131850E4F3983ED4F3869577956795B795F79515
S1131860E7959F5FC1F7FE2B880F911D969587958D
S113187097F90895990F0008550FAA0BE0E8FEEFB9
S113188016161706E807F907C0F012161306E40740
S1131890F50798F0621B730B840B950B39F40A2639
S11318A061F0232B242B252B21F408950A2609F417
S11318B0A140A6958FEF811D811D0895FC01882705
S11318C09927E89421912032E9F3293010F02E3041
S11318D0C8F32B3241F02D3239F4689404C00E94CD
S11318E08C0C820F911D219120532A30C0F31EF4D9
S11318F0909581959F4F0895FB01DC018D91019096
S113190080190110D9F3990B0895FB01DC010190B2
S11319100D920020E1F708957AE0979F902D879F1C
S10F1920802D910D11240895F894FFCF40
S113192C000090405C016601700184008600880010
S113193C8A008C008E009000920094009600B400F3
S113194C98009A002E0034003500360078003100DF
S113195C320033002D0020003D002B0052756262D2
S113196C657220536F6C7574696F6E204D69786560
S113197C7220312E300057656C636F6D65004E75A7
S113198C6D626572206F662054726179733F0045F5
S113199C6E74657220612076616C7565206C65735C
S11319AC73207468616E20323000566F6C2E6F6633
S11319BC20612054726179286D6C2900456E746520
S11319CC7220612076616C7565206C65737320746C
S11319DC68616E2035303030005761746572204C6C
S11319EC6576656C204C6F77210041636964204CEB
S11319FC6576656C204C6F7721004C61746578209A
S1131A0C4C6576656C204C6F772100416374767459
S1131A1C207573006C69716420656D7437006C6992
S1131A2C716420656D7438006C69716420656D7423
S1131A3C39004163767420436F6E7665796F72005A
S1131A4C41637674207472617920707573680041F7
S1131A5C6376742049522073656E736F720044610F
S1131A6C6374767420436F6E7665796F720062616D
S1131A7C636B2074727920707368004163767420F0
S1131A8C73747072206D7872004163767420707573
S1131A9C6D70730041637674206D697865720041D2
S1131AAC637674206D6978657220557000456E6498
S10F1ABC206F662070726F6772616D000D
S9030000FC
