S00A000050482E7372656382
S11300000C94AB000C94C8000C94C8000C94C80069
S11300100C94C8000C94C8000C94C8000C94C8003C
S11300200C94C8000C94C8000C94C8000C94C8002C
S11300300C94C8000C94C8000C94C8000C94C8001C
S11300400C94C8000C94C8000C94C8000C94C8000C
S11300500C94C8006E616E00696E660000407A10F0
S1130060F35A00A0724E18090010A5D4E80000E865
S11300707648170000E40B54020000CA9A3B0000C3
S113008000E1F505000080969800000040420F0052
S11300900000A08601000000102700000000E80313
S11300A0000000006400000000000A0000000000DE
S11300B00100000000002C76D888DC674F0823DF9D
S11300C0C1DFAE59E1B1B796E5E3E453C63AE65170
S11300D0997696E8E6C28426EB898C9B62ED407C97
S11300E06FFCEFBC9C9F40F2BAA56FA5F490055A33
S11300F02AF75C936B6CF9676DC11BFCE0E40D4758
S1130100FEF520E6B500D0ED902E0300943577057A
S11301100080841E080000204E0A000000C80C3332
S11301203333330F986E12831141EF8D2114893BC1
S1130130E65516CFFEE6DB18D1844B381BF77C1D41
S1130140901DA4BBE424203284725E228100C9F194
S113015024ECA1E53D2711241FBECFE5D8E0DEBF86
S1130160CDBF10E0A0E6B0E0ECEAF4E102C00590F7
S11301700D92AA38B107D9F720E0AAE8B0E001C08F
S11301801D92AE38B207E1F70E9473020C94540A30
S11301900C94000080E487B987E886B908958770D5
S11301A097B1987F892B87B986B1806486B93699CF
S11301B0FECF84B195B1089585B3806485BB00C03A
S11301C085B38F7B85BB0895CF93DF93D82F6623A8
S11301D021F085B3806185BB03C085B38F7E85BB69
S11301E085B38F7D85BB84B38F6084BBC5B3C07F6B
S11301F08D2F82958F708C2B85BB0E94DC00DF7065
S1130200DC2BD5BB0E94DC00CF60C5BBDF91CF9156
S11302100895882321F085B3806185BB03C085B32D
S11302208F7E85BB85B3806285BB84B3807F84BBAE
S113023085B3806485BB00C093B39295907F85B3EA
S11302408F7B85BB00C085B3806485BB00C083B34E
S11302508F7025B32F7B25BB892B089580E00E94E6
S113026009018823DCF388E090E00197F1F780E04E
S11302700E9409010895CF93C82F0E942E0160E0C7
S11302808C2F0E94E400CF910895611104C080581E
S11302900E943B010895613021F480540E943B0187
S11302A00895623021F48C560E943B0108958C52CB
S11302B00E943B01089581E00E943B010895CF9381
S11302C0C82F0E942E01CA30A1F4843148F090EC6A
S11302D0980F943138F084518C3230F484E505C0A1
S11302E080E403C084E101C080E080580E943B01A7
S11302F004C061E08C2F0E94E400CF910895CF9355
S1130300DF93FC0103C00E945F01FE01EF0121960F
S113031080818111F8CFDF91CF9108951F93CF93FE
S1130320DF93182F84B38F6784BB80E09AEF019723
S1130330F1F785B3826085BB85B3816085BB0E947C
S1130340DC0080E09EE40197F1F70E94DC00C0E04D
S1130350D1E0CE010197F1F70E94DC00CE010197B4
S1130360F1F785B38E7F85BB0E94DC002197F1F7FE
S113037088E20E943B0188E00E943B010E945B01ED
S113038086E00E943B01812F0E943B01DF91CF91C7
S11303901F91089583E00E94CF00BC01990F880B40
S11303A0990B0E94B30220E030E040E65CE30E9437
S11303B0170308958CE00E948E010E945B0160E0A7
S11303C080E00E9445018FE097E20197F1F700C0B9
S11303D000000895CF92DF92EF92FF920F931F9344
S11303E0CF93DF93CDB7DEB766970FB6F894DEBF31
S11303F00FBECDBFE62EF72E082F192F62E080E046
S11304000E94450180E890E00E947F011F930F93B2
S1130410FF92EF9284E890E09F938F93CE01019630
S11304206C019F938F930E94D40989810E945F017C
S11304308A810E945F018B810E945F018C810E94EE
S11304405F01C6010E9421080FB6F894DEBF0FBEFB
S1130450CDBF20E030E040EE50E46E2D7F2D802FA4
S1130460912F0E941203181664F020E030E040EC53
S113047050E46E2D7F2D802F912F0E94AC02882393
S113048094F48CE0E6E6F0E0DE011B9601900D9218
S11304908A95E1F762E088E00E944501CE010B965F
S11304A00E947F0111C08CE0E3E7F0E0DE011B96BF
S11304B001900D928A95E1F762E088E00E9445017F
S11304C0CE010B960E947F0166960FB6F894DEBFAC
S11304D00FBECDBFDF91CF911F910F91FF90EF9091
S11304E0DF90CF9008950E94DA010E94CA000E9412
S11304F084020E94CA016B017C010E94EA01C701C7
S1130500B6010E948802F5CF81B3806881BB08954B
S1130510CF92DF92EF92FF926B017C0120E030E0FA
S113052040EE50E40E941203181654F020E030E02C
S113053040EC50E4C701B6010E94AC02882324F4C5
S113054082B3806882BB03C082B38F7782BBFF9083
S1130550EF90DF90CF9008950E94EE0208F481E0BE
S11305600895E89409C097FB3EF4909580957095A2
S113057061957F4F8F4F9F4F9923A9F0F92F96E9EB
S1130580BB279395F695879577956795B795F11160
S1130590F8CFFAF4BB0F11F460FF1BC06F5F7F4FFD
S11305A08F4F9F4F16C0882311F096E911C077230F
S11305B021F09EE8872F762F05C0662371F096E818
S11305C0862F70E060E02AF09A95660F771F881FE7
S11305D0DAF7880F9695879597F90895990F00088B
S11305E0550FAA0BE0E8FEEF16161706E807F90701
S11305F0C0F012161306E407F50798F0621B730B9C
S1130600840B950B39F40A2661F0232B242B252B1C
S113061021F408950A2609F4A140A6958FEF811DBF
S1130620811D08950E94EE0208F48FEF08950E9440
S11306302A030C949B030E948D0338F00E949403B8
S113064020F0952311F00C9484030C948A03112454
S11306500C94CF030E94AC0370F3959FC1F3950FE4
S113066050E0551F629FF001729FBB27F00DB11D32
S1130670639FAA27F00DB11DAA1F649F6627B00DC2
S1130680A11D661F829F2227B00DA11D621F739FAB
S1130690B00DA11D621F839FA00D611D221F749FB9
S11306A03327A00D611D231F849F600D211D822F00
S11306B0762F6A2F11249F5750409AF0F1F0882327
S11306C04AF0EE0FFF1FBB1F661F771F881F915054
S11306D05040A9F79E3F510580F00C9484030C947C
S11306E0CF035F3FE4F3983ED4F3869577956795FF
S11306F0B795F795E7959F5FC1F7FE2B880F911D7E
S11307009695879597F9089597F99F6780E870E023
S113071060E008959FEF80EC089500240A94161673
S1130720170618060906089500240A9412161306DB
S1130730140605060895092E0394000C11F4882369
S113074052F0BB0F40F4BF2B11F460FF04C06F5F85
S11307507F4F8F4F9F4F089557FD9058440F551F5B
S113076059F05F3F71F04795880F97FB991F61F02F
S11307709F3F79F087950895121613061406551FA6
S1130780F2CF4695F1DF08C0161617061806991F12
S1130790F1CF86957105610508940895E894BB2707
S11307A066277727CB0197F90895A0E1B0E0EBED38
S11307B0F3E00C9452077C011B016A01FC011782CF
S11307C01682838181FF44C39E012F5F3F4F39010D
S11307D0F7019381F10193FD859193FF81911F01AD
S11307E0882309F431C3853239F493FD859193FF4D
S11307F081911F01853239F4B70190E00E94980974
S113080056016501E5CF10E0512C912CFFE1F9155B
S1130810D8F08B3279F038F4803279F08332A1F455
S1130820F92DF0612EC08D3261F0803369F4292DE9
S113083021602DC0392D3260932E892D8460982E2D
S11308402AC0E92DE86015C097FC2DC020ED280FC3
S11308502A3088F496FE06C03AE0139F200D112436
S1130860122F19C08AE0589E200D1124522EE92D12
S1130870E0629E2E10C08E3231F496FCE5C2F92D52
S1130880F0649F2E08C08C3621F4292D2068922E06
S113089002C0883641F4F10193FD859193FF819163
S11308A01F018111B3CF9BEB980F933020F4992D46
S11308B09061805E07C09BE9980F933008F066C191
S11308C0992D9F7E96FF16E09F73992E853619F415
S11308D09064992E08C0863621F4392F3068932EFF
S11308E002C01111115097FE07C01C3350F4442468
S11308F04394410E27E00BC0183038F027E017E08E
S113090005C027E09CE3492E02C0212F412C56014B
S113091084E0A80EB11CF60160817181828193810B
S1130920042DA3010E94AA086C01F981FC87F0FF41
S113093002C0F3FF06C091FC06C092FE06C000E2AE
S113094005C00DE203C00BE201C000E08C858C7091
S113095019F001115AC29BC297FE10C04C0CFC85C1
S1130960F4FF04C08A81813309F44A94141474F5A1
S113097028E0241578F588E0482E2CC096FC2AC07F
S1130980812F90E08C159D059CF03CEFC3163FEF42
S1130990D30674F0892D8068982E0AC0E2E0F0E056
S11309A0EC0FFD1FE10FF11D8081803319F411500C
S11309B01111F4CF97FE0EC044244394410E812FAD
S11309C090E0C816D9062CF41C1904C0442443949E
S11309D001C010E097FE06C01C141D0434F4C601C7
S11309E0019605C085E090E002C081E090E001112D
S11309F00196112331F0212F30E02F5F3F4F820FFA
S1130A00931F252D30E08217930714F4581A01C060
S1130A10512C892D897049F4552039F0B70180E2B1
S1130A2090E00E9498095A94F7CF002329F0B70167
S1130A30802F90E00E94980993FC09C0552039F05A
S1130A40B70180E390E00E9498095A94F7CF97FE8B
S1130A504CC04601D7FE02C0812C912CC6018819D6
S1130A609909F301E80FF91FFE87ED879601241910
S1130A703109388B2F87012F10E011950195110949
S1130A803FEF8316930629F4B7018EE290E00E94AB
S1130A909809C814D9044CF08F859889881599054C
S1130AA024F4ED85FE85818101C080E3F1E08F1A95
S1130AB091082D853E852F5F3F4F3E872D878016F9
S1130AC091062CF0B70190E00E949809D9CFC81480
S1130AD0D90441F49A81963320F4953319F43C8572
S1130AE034FF81E3B70190E04EC08A81813319F06D
S1130AF09C859F7E9C87B70190E00E949809111104
S1130B0005C094FC18C085E690E017C0B7018EE2DA
S1130B1090E00E9498091E5F82E001E0080FF30153
S1130B20E80FF11D8081B70190E00E949809802FA1
S1130B300113F3CFE6CF85E490E0B7010E94980952
S1130B40D7FC06C0C114D10441F4EC85E4FF05C010
S1130B50D194C194D1088DE201C08BE2B70190E039
S1130B600E94980980E32AE0C216D1042CF08F5F1A
S1130B70FAE0CF1AD108F7CFB70190E00E949809A4
S1130B80B701C601C0960E94980954C1833631F05A
S1130B90833779F0833509F056C020C0560132E01E
S1130BA0A30EB11CF6018081898301E010E063018A
S1130BB012C05601F2E0AF0EB11CF601C080D18024
S1130BC096FE03C0612F70E002C06FEF7FEFC60195
S1130BD00E948D098C01F92DFF7714C0560122E083
S1130BE0A20EB11CF601C080D18096FE03C0612F15
S1130BF070E002C06FEF7FEFC6010E9482098C0192
S1130C00F92DF0689F2EF3FD1AC0852D90E008178A
S1130C101907A8F4B70180E290E00E9498095A9459
S1130C20F4CFF60197FC859197FE81916F01B7018E
S1130C3090E00E94980951105A940150110901152D
S1130C40110579F7F7C0843611F0893661F556013C
S1130C5097FE09C024E0A20EB11CF60160817181E7
S1130C60828193810AC0F2E0AF0EB11CF60160816B
S1130C707181072E000C880B990BF92DFF769F2E9E
S1130C8097FF09C090958095709561957F4F8F4F20
S1130C909F4FF0689F2E2AE030E0A3010E94F609DE
S1130CA0C82EC6183FC0092D853721F40F7E2AE0CF
S1130CB030E01DC0097F8F3691F018F4883559F063
S1130CC0C3C0803719F0883711F0BEC0006104FF3B
S1130CD009C0046007C094FE08C0066006C028E08E
S1130CE030E005C020E130E002C020E132E05601EE
S1130CF007FF09C084E0A80EB11CF6016081718170
S1130D008281938108C0F2E0AF0EB11CF6016081CC
S1130D10718180E090E0A3010E94F609C82EC618F4
S1130D200F77902E96FE0BC0092D0E7FC11650F43E
S1130D3094FE0AC092FC08C0092D0E7E05C0DC2C6E
S1130D40092D03C0DC2C01C0D12E04FF0DC0FE010F
S1130D50EC0DF11D8081803311F4097E09C002FF7E
S1130D6006C0D394D39404C0802F867809F0D3941A
S1130D7003FD11C000FF06C01C2DD51480F4150D11
S1130D801D190DC0D51458F4B70180E290E00E94FB
S1130D909809D394F7CFD51410F45D1801C0512CE1
S1130DA004FF10C0B70180E390E00E94980902FF9D
S1130DB017C001FD03C088E790E002C088E590E019
S1130DC0B7010CC0802F867859F001FF02C08BE276
S1130DD001C080E207FD8DE2B70190E00E9498090E
S1130DE0C11638F4B70180E390E00E9498091150CD
S1130DF0F7CFCA94F301EC0DF11D8081B70190E0A7
S1130E000E949809C110F5CF15C0F4E0F51560F5FE
S1130E1084E0581A93FE1FC0011127C02C8523FFBC
S1130E202AC004E510E0392D3071932EF801849125
S1130E30811124C0552009F4E4CCB70180E290E08C
S1130E400E9498095A94F6CFF7018681978126C0AB
S1130E508FEF9FEF23C0B70180E290E00E949809D2
S1130E605A945110F8CFD8CF512CB701802F90E06D
S1130E700E949809D3CF08E510E0D5CF9110805295
S1130E80B70190E00E9498090F5F1F4FCFCF23E076
S1130E90251510F483E0BDCF512CC0CF6096E2E15C
S1130EA00C946E072F923F924F925F926F927F92B3
S1130EB08F929F92AF92BF92CF92DF92EF92FF9266
S1130EC00F931F93CF93DF93CDB7DEB7CA1BDB0B12
S1130ED00FB6F894DEBF0FBECDBF09942A883988B7
S1130EE048885F846E847D848C849B84AA84B984BE
S1130EF0C884DF80EE80FD800C811B81AA81B981CA
S1130F00CE0FD11D0FB6F894DEBF0FBECDBFED01DD
S1130F1008950F931F93CF93DF938230910510F4BC
S1130F2082E090E0E0918C00F0918D0020E030E0D0
S1130F30A0E0B0E0309719F1408151810281138122
S1130F4048175907C8F08417950769F4109731F0CA
S1130F5012960C93129713961C9327C000938C003F
S1130F6010938D0022C02115310519F04217530743
S1130F7018F49A01BD01EF01DF01F801DBCF21155F
S1130F803105F9F0281B390B2430310580F48A81AE
S1130F909B816115710521F0FB019383828304C059
S1130FA090938D0080938C00FE01329644C0FE0124
S1130FB0E20FF31F819391932250310939832883DF
S1130FC03AC020918A0030918B00232B41F4209168
S1130FD062003091630030938B0020938A0020914B
S1130FE06000309161002115310541F42DB73EB701
S1130FF04091640050916500241B350BE0918A00F8
S1131000F0918B00E217F307A0F42E1B3F0B281777
S1131010390778F0AC014E5F5F4F2417350748F06D
S11310204E0F5F1F50938B0040938A0081939193DE
S113103002C0E0E0F0E0CF01DF91CF911F910F916A
S11310400895CF93DF93009709F481C0FC01329790
S113105013821282A0918C00B0918D00109781F4BC
S113106020813181820F931F20918A0030918B005F
S11310702817390751F5F0938B00E0938A0067C075
S1131080ED0120E030E0CE17DF0740F44A815B81B8
S11310909E0141155105F1F0EA01F5CFD383C283D6
S11310A040815181840F951FC817D90759F488814D
S11310B09981840F951F0296918380838A819B81F5
S11310C0938382832115310529F4F0938D00E093F5
S11310D08C003DC0E901FB83EA8349915991C40F17
S11310E0D51FEC17FD0761F480819181840F951F52
S11310F00296E90199838883828193819B838A8301
S1131100E0E0F0E012968D919C911397009719F00E
S1131110FD01DC01F7CF8D919C9111979D012E5F0C
S11311203F4F820F931F20918A0030918B00281724
S1131130390769F4309729F410928D0010928C00CD
S113114002C013821282B0938B00A0938A00DF91B5
S1131150CF910895283008F027E03327DA01990F5A
S1131160311D87FD916000966105710539F4326087
S11311702E5F3D9330E32A95E1F708959F3F30F0C9
S113118080387105610509F03C5F3C5F3D93913007
S113119008F08068911DDF93CF931F930F93FF9204
S11311A0EF92192F987F9695E92F96959695E90FCA
S11311B0FF27EA54FF4F99273327EE24FF24A70182
S11311C0E70105900894079428F4360FE71EF81EEB
S11311D0491F511D660F771F881F991F0694A1F799
S11311E00590079428F4E70EF81E491F561FC11DE9
S11311F0770F881F991F661F0694A1F7059007941F
S113120028F4F80E491F561FC71FD11D880F991FB8
S1131210661F771F0694A1F70590079420F4490FE1
S1131220561FC71FD81F990F661F771F881F069464
S1131230A9F784911095177041F0D695C7955795E5
S11312404795F794E7941A95C1F7ECE5F0E06894B4
S11312501590159135916591959105907FE273955F
S1131260E118F10A430B560BC90BD009C0F7E10C86
S1131270F11E431F561FC91FD01D7EF4703311F495
S11312808A95E6CFE894015030F0080F0AF400275D
S1131290021708F4202F2395022F7A3328F079E3DC
S11312A07D932A95E9F710C07D932A9589F60694D3
S11312B097956795379517951794E118F10A430B9D
S11312C0560BC90BD00998F023957E9173957A3308
S11312D008F070E37C932013B8F77E9170617D93DE
S11312E030F0839571E37D9370E32A95E1F711243F
S11312F0EF90FF900F911F91CF91DF91992787FD78
S113130090950895FC010590615070400110D8F744
S1131310809590958E0F9F1F0895FC016150704039
S113132001900110D8F7809590958E0F9F1F089516
S11313300F931F93CF93DF93FB01238121FD03C000
S11313408FEF9FEF2CC022FF16C046815781248166
S113135035814217530744F4A081B1819D012F5F69
S11313603F4F318320838C93268137812F5F3F4FFA
S11313703783268314C08B01EC01FB010084F185C3
S1131380E02D0995892BE1F6D80116968D919C9153
S11313901797019617969C938E931697CE01DF911B
S11313A0CF911F910F910895AEE0B0E0EAEDF9E01E
S11313B00C9460070D891E8986E08C831A83098347
S11313C08FEF9FE79E838D83AE01475E5F4F6F89EA
S11313D0788DCE0101960E94D503EF81F885E00F48
S11313E0F11F10822E96E4E00C947C07FA01AA27E0
S11313F0283051F1203181F1E8946F936E7F6E5F54
S11314007F4F8F4F9F4FAF4FB1E03ED0B4E03CD001
S1131410670F781F891F9A1FA11D680F791F8A1FE4
S1131420911DA11D6A0F711D811D911DA11D20D04B
S113143009F468943F912AE0269F11243019305D05
S11314403193DEF6CF010895462F4770405D4193F6
S1131450B3E00FD0C9F7F6CF462F4F70405D4A3343
S113146018F0495D31FD4052419302D0A9F7EACF0B
S1131470B4E0A6959795879577956795BA95C9F73A
S113148000976105710508959B01AC010A2E06942D
S11314905795479537952795BA95C9F7620F731FE6
S10F14A0841F951FA01D0895F894FFCF31
S11314AC00008E002000736F6C656E6F69645F4F73
S11314BC4E2000736F6C656E6F69645F4F46460017
S10D14CC70483D0025322E32660000
S9030000FC
