S01800004763634170706C69636174696F6E78782E737265639B
S11300000C942A000C9447000C9447000C9447006D
S11300100C9447000C9447000C9447000C94470040
S11300200C9447000C9447000C9447000C94470030
S11300300C9447000C9447000C9447000C94470020
S11300400C9447000C9447000C9447000C94470010
S11300500C94470011241FBECFE5D8E0DEBFCDBF0E
S113006011E0A0E6B0E0E2E3F6E102C005900D92F3
S1130070AE30B107D9F721E0AEE0B1E001C01D9286
S1130080A739B207E1F70E946B070C94170B0C9485
S113009000000E94F3078D33E1F08823B1F0E09172
S11300A01101F0E0E458FE4F80830E94F108809132
S11300B011018F5F809311012FE58AEE90E02150AA
S11300C080409040E1F700C000000E94F3078D33A8
S11300D021F7E0911101F0E0E458FE4F8DE38083B5
S11300E00E94F108809111018F5F8093110182E0D9
S11300F008952F923F924F925F926F927F928F92C8
S11301009F92AF92BF92CF92DF92EF92FF920F93A2
S11301101F93CF93DF93CDB7DEB728970FB6F8942C
S1130120DEBF0FBECDBF6D8361118AC019821A82F2
S1130130C12CD12CE12CF12C00E010E068C082909D
S1130140082C000C990820E3821A9108092C000C51
S1130150AA08BB08411451046104710449F1C12C7B
S1130160D12C7601C39421E030E0422D532DBA0105
S1130170A901440F551F661F771FDB01CA01880FB1
S1130180991FAA1FBB1F880F991FAA1FBB1F9A0183
S1130190AB01280F391F4A1F5B1F8FEFC81AD80AFB
S11301A0E80AF80A4C145D046E047F0400F704C0E6
S11301B021E030E0422D532D8FEF481A580A680A87
S11301C0780AC501B4010E948F094B015C01262FF6
S11301D0392D4A2D5B2D60E070E080E090E0A9802D
S11301E0BA80C884DE80EB80FC800E94DA0A29830E
S11301F03A8348875E836B837C83082F192F2D8174
S1130200421608F49CCFC42ED52EE62EF72E8091EC
S11302100F018823F1F129813A814C2D5D2D6E2D3A
S11302207F2D802F912F0E94930A29833A83C42E15
S1130230D52EE62EF72E082F192F10920F0129C064
S1130240FD81EF2FF0E03197E80FF91FFF83EE8374
S11302506081062E000C770B605371094B01770FF8
S1130260AA08BB08412C512C3201439419821A82EA
S1130270C12CD12CE12CF12C00E010E021E030E085
S113028040E050E0212C312CC886DE82EB82FC82D7
S113029098CF29813A814C2D5D2D6E2D7F2D802F95
S11302A0912F28960FB6F894DEBF0FBECDBFDF9115
S11302B0CF911F910F91FF90EF90DF90CF90BF905F
S11302C0AF909F908F907F906F905F904F903F90F2
S11302D02F900895BF92CF92DF92EF92FF920F93E7
S11302E01F93CF93DF93CDB7DEB760970FB6F89423
S11302F0DEBF0FBECDBFFE01319680E1DF011D924E
S11303008A95E9F780917C0196ED980F923030F050
S11303108D32B9F0853221F010E024C08D3289F09D
S11303200E94850980E690E00E94FE08BFE32DE06C
S113033083E0B15020408040E1F700C00000B12CC0
S1130340A2C080917D0196ED980F923018F0877FBE
S1130350853239F481E08093100180930F0111E01C
S113036001C010E080911101882309F482C060E08B
S113037001E0E12EF12CF701E458FE4F808190ED6D
S1130380980F9A3040F090911001911104C0B090F0
S11303900E01BB2069F0E1E0F0E0EC0FFD1FE60F79
S11303A0F11D80836F5F1092100110920E0154C0F2
S11303B096ED980F923038F0982F977F953219F078
S11303C08D3309F049C090911201E92FF0E0E45710
S11303D0FE4F80839F5F90931201C0901301D12C34
S11303E0CE0101960E947900F601EE0FFF1FEE0F79
S11303F0FF1FEE0FFF1FE45EFE4F20833183428315
S113040053836483758386839783809113018F5FFD
S113041080931301F701E458FE4F81818D3271F509
S1130420112349F000930E0100930F011F5F60E058
S113043013C0853281F40E94850980E690E00E9411
S1130440FE089FE3ADE0B3E09150A040B040E1F777
S113045000C0000018C060E01F5F8091110181504E
S113046080931101811185CF0F2EF3E0BF2EF02D63
S11304700AC00F2EF3E0BF2EF02D05C096ED980FA5
S11304809230B8F6D8CF8B2D60960FB6F894DEBFB5
S11304900FBECDBFDF91CF911F910F91FF90EF90D1
S11304A0DF90CF90BF9008958F929F92AF92BF92AA
S11304B0CF92DF92EF92FF920F931F93CF93DF932C
S11304C080911201833008F4DCC3A0911301A130A0
S11304D0E1F4ECE1F1E08081809314018181809367
S11304E01501828180931601838180931701848191
S11304F080931801858180931901868180931A0164
S1130500878180931B0184E0C2C3ECE8F1E0918110
S1130510808198131DC1A23008F4ADC380918C0171
S11305208A3209F449C020F4853209F4C7C0FFC0F7
S11305308B3221F08D3209F48AC0F9C0ECE1F1E08C
S1130540A080B180C280D380E480F58006811781C9
S1130550E4E2F1E0A250B0E0AA0FBB1FAA0FBB1F58
S1130560AA0FBB1FA45DBE4F2081318142815381FC
S1130570648175818681978138960E94DA0AA22E59
S1130580B32EC42ED52EE62EF72E082F192FEA17D8
S1130590FB0751F720931401309315014093160182
S11305A050931701609318017093190180931A01F5
S11305B090931B0184E06BC381E08093140110923B
S11305C01501109216011092170110921801109241
S11305D0190110921A0110921B01AA2309F44DC3A8
S11305E0CCE1D1E0A1508A2F90E0880F991F880FA9
S11305F0991F880F991F9C012C5D3E4F490121E0F2
S113060030E040E050E060E070E080E090E0A880FE
S1130610B980CA80DB80EC80FD800E811F81289622
S11306200E94AA09C815D90591F7209314013093A3
S113063015014093160150931701609318017093AC
S1130640190180931A0190931B0184E020C3ECE10B
S1130650F1E02081318142815381648175818681F9
S11306609781C4E2D1E0A250EA2FF0E0EE0FFF1F21
S1130670EE0FFF1FEE0FFF1FE45DFE4FA880B98051
S1130680CA80DB80EC80FD800E811F8128960E9449
S1130690E30ACE17DF0791F7209314013093150175
S11306A04093160150931701609318017093190138
S11306B080931A0190931B0184E0E9C2ECE1F1E01C
S11306C02081318142815381648175818681978142
S11306D0C4E2D1E0A250EA2FF0E0EE0FFF1FEE0FCC
S11306E0FF1FEE0FFF1FDF01A45DBE4F4D01A88069
S11306F0B980CA80DB80EC80FD800E811F81289642
S11307000E94050AC815D90591F720931401309366
S113071015014093160150931701609318017093CB
S1130720190180931A0190931B0184E0B0C20E94C6
S1130730850980E690E00E94FE08BFE32DE033E0E7
S1130740B15020403040E1F700C0000080E09FC27B
S1130750A23008F494C28A3219F49B3271F42CC08A
S11307608B3231F49A3209F457C09D3291F484C02B
S11307708D3231F49B32A9F4AFC0953271F4DCC0F0
S1130780853209F069C29A3209F406C19B3261F4D8
S113079033C1953209F060C25FC19D3209F05CC279
S11307A08BC19A3229F4B8C19D3209F055C2ECC10B
S11307B0953209F051C218C2CCE1D1E0A884B984C1
S11307C0CA84DB84EC84FD840E851F8528813981ED
S11307D04A815B816C817D818E819F810E94AA09FF
S11307E0A888B988CA88DB88EC88FD880E891F89A7
S11307F00E94DA0A209314013093150140931601E4
S113080050931701609318017093190180931A0192
S113081090931B0184E03BC2CCE1D1E0A888B98865
S1130820CA88DB88EC88FD880E891F89288539856C
S11308304A855B856C857D858E859F850E94AA0986
S1130840A880B980CA80DB80EC80FD800E811F8186
S11308500E94DA0A20931401309315014093160183
S113086050931701609318017093190180931A0132
S113087090931B0184E00BC2ECE1F1E0208531850B
S1130880428553856485758586859785A088B1885A
S1130890C288D388E488F588068917890E94E30A08
S11308A0A080B180C280D380E480F5800681178166
S11308B00E94DA0A20931401309315014093160123
S11308C050931701609318017093190180931A01D2
S11308D090931B0184E0DBC1ECE1F1E020813181E4
S11308E0428153816481758186819781A084B1841A
S11308F0C284D384E484F584068517850E94E30AC0
S1130900A088B188C288D388E488F58806891789C5
S11309100E94DA0A209314013093150140931601C2
S113092050931701609318017093190180931A0171
S113093090931B0184E0ABC1CCE1D1E0A888B988D5
S1130940CA88DB88EC88FD880E891F89288539854B
S11309504A855B856C857D858E859F850E94050A09
S1130960A880B980CA80DB80EC80FD800E811F8165
S11309700E94AA0920931401309315014093160193
S113098050931701609318017093190180931A0111
S113099090931B0184E07BC1CCE1D1E0A884B984AD
S11309A0CA84DB84EC84FD840E851F85288139810B
S11309B04A815B816C817D818E819F810E94050AC1
S11309C0A888B988CA88DB88EC88FD880E891F89C5
S11309D00E94AA0920931401309315014093160133
S11309E050931701609318017093190180931A01B1
S11309F090931B0184E04BC1CCE1D1E0A884B9847D
S1130A00CA84DB84EC84FD840E851F8528813981AA
S1130A104A815B816C817D818E819F810E94050A60
S1130A20A888B988CA88DB88EC88FD880E891F8964
S1130A300E94DA0A209314013093150140931601A1
S1130A4050931701609318017093190180931A0150
S1130A5090931B0184E01BC1CCE1D1E0A884B9844C
S1130A60CA84DB84EC84FD840E851F85288139814A
S1130A704A815B816C817D818E819F810E94050A00
S1130A80A888B988CA88DB88EC88FD880E891F8904
S1130A900E94DA0A20931401309315014093160141
S1130AA050931701609318017093190180931A01F0
S1130AB090931B0184E0EBC0CCE1D1E0A884B9841D
S1130AC0CA84DB84EC84FD840E851F8528813981EA
S1130AD04A815B816C817D818E819F810E94AA09FC
S1130AE0A888B988CA88DB88EC88FD880E891F89A4
S1130AF00E94E30A209314013093150140931601D8
S1130B0050931701609318017093190180931A018F
S1130B1090931B0184E0BBC0CCE1D1E0A888B988E4
S1130B20CA88DB88EC88FD880E891F892885398569
S1130B304A855B856C857D858E859F850E94AA0983
S1130B40A22EB32EC42ED52EE62EF72E082F192F43
S1130B50288139814A815B816C817D818E819F816D
S1130B600E94E30A20931401309315014093160167
S1130B7050931701609318017093190180931A011F
S1130B8090931B0184E083C0CCE1D1E0A884B984B4
S1130B90CA84DB84EC84FD840E851F852881398119
S1130BA04A815B816C817D818E819F810E94050ACF
S1130BB0A888B988CA88DB88EC88FD880E891F89D3
S1130BC00E94E30A20931401309315014093160107
S1130BD050931701609318017093190180931A01BF
S1130BE090931B0184E053C0CCE1D1E0A888B9887C
S1130BF0CA88DB88EC88FD880E891F892885398599
S1130C004A855B856C857D858E859F850E94050A56
S1130C10A22EB32EC42ED52EE62EF72E082F192F72
S1130C20288139814A815B816C817D818E819F819C
S1130C300E94E30A20931401309315014093160196
S1130C4050931701609318017093190180931A014E
S1130C5090931B0184E01BC08BE690E00E94FE0889
S1130C608FE39DE0A3E081509040A040E1F700C0F5
S1130C70000080E00CC084E00AC084E008C084E086
S1130C8006C0A0911301A13009F045CC22CCDF911C
S1130C90CF911F910F91FF90EF90DF90CF90BF9075
S1130CA0AF909F908F9008952F923F924F925F92B2
S1130CB06F927F928F929F92AF92BF92CF92DF9268
S1130CC0EF92FF920F931F93CF93DF93CDB7DEB7CD
S1130CD063970FB6F894DEBF0FBECDBF2091140109
S1130CE0298B809115018A8B8090160170901701D1
S1130CF0609018015090190140901A0130901B0126
S1130D00382F482D572D662D752D842D932DA0E059
S1130D100E94EC0A6CF40E94930A298B3A8B842E6D
S1130D20752E662E572E482E392E91E09B8B01C0CE
S1130D301B8A9924939401C09E2E22242A94290C60
S1130D400F2EFAE0AF2EF02DB12CC12CD12CE12CBA
S1130D50F12C00E010E029893A89482D572D662DA1
S1130D60752D842D932D0E94030A2A3048F4E1E066
S1130D70F0E0EC0FFD1FE20DF11D205D208308C0A3
S1130D80E1E0F0E0EC0FFD1FE20DF11D295C208392
S1130D900F2EFAE0AF2EF02DB12CC12CD12CE12C6A
S1130DA0F12C00E010E029893A89482D572D662D51
S1130DB0752D842D932D0E94050A298B3A8B842E40
S1130DC0752E662E572E482E392EE1E0E90DA0E04F
S1130DD00E94EC0A11F00CF0AFCF2B89222329F0EA
S1130DE08DE2FE01E90DF11D818381E0890DE1E0D1
S1130DF0F0E0EC0FFD1FE80FF11D1082CE0101960B
S1130E000E94070B61E081E00E947809CE010196FF
S1130E100E94FE088FE39DE023E081509040204033
S1130E20E1F700C0000080E063960FB6F894DEBFDF
S1130E300FBECDBFDF91CF911F910F91FF90EF9027
S1130E40DF90CF90BF90AF909F908F907F906F90E6
S1130E505F904F903F902F900895ECE7F1E08CE87D
S1130E6091E011928E179F07E1F7ECE1F1E08CE736
S1130E7091E01082118212821382148215821682EA
S1130E80178238968E179F07A1F7ECE8F1E087E9FF
S1130E9091E011928E179F07E1F7109213011092BF
S1130EA01201109211011092140110921501109266
S1130EB01601109217011092180110921901109244
S1130EC01A0110921B010E94F3078823E1F30E9488
S1130ED0850981E008950E94E6070E9425098AE7B2
S1130EE090E00E94FE082FED83E994E021508040B9
S1130EF09040E1F700C000000E94850981E990E07C
S1130F000E94FE082FED83E994E021508040904038
S1130F10E1F700C000000E94850982EA90E00E9487
S1130F20FE082FED83E994E0215080409040E1F7E2
S1130F3000C000000E94850988EB90E00E94FE0832
S1130F402FED83E994E0215080409040E1F700C008
S1130F5000000E94850987ED90E00E94FE082FEDB5
S1130F6083E994E0215080409040E1F700C0000004
S1130F700E94850981EF90E00E94FE082FED83E92D
S1130F8094E0215080409040E1F700C000000E94AE
S1130F9085090E9449008130E1F3823021F40E94E6
S1130FA06A018230E1F3833021F40E9454028330D9
S1130FB0E1F3843021F40E9454068430E1F381117A
S1130FC0E8CF0E942D078823E1F3E3CF889A899A1A
S1130FD08A9A8B9A8C988D988E988F98949A959AD1
S1130FE0969A979A08954F925F926F927F928F92FA
S1130FF09F92AF92CF92DF92EF92FF921F93CF9383
S1131000DF9310E0909A919A929A939A111102C0E8
S1131010909809C0113011F4919805C0123011F460
S1131020929801C09398A0B270B280B290B2C0B34B
S113103090B360B280B3C4FB442740F950E095FB01
S1131040662760F970E0EA01C623D723881F882742
S1131050881F90E08C239D2366FAEE27E0F9F0E0E8
S11310608E239F230197F1F040B390B360B380B314
S113107044FB442440F8512C95FBEE24E0F8F12C79
S1131080A2014E215F21881F8827881F90E08423B6
S1131090952366FBCC24C0F8D12C8C219D2101978B
S11310A019F704C01F5F143009F0ACCFA4FAAA24C6
S11310B0A0F8991C9924991C990C990C990CA928AD
S11310C075FAAA27A0F9B0E0AA0FBB1FAA2986FACD
S11310D0222720F930E0220F331F220F331F2A2B3F
S11310E02295207F1130D1F028F0123051F11330C5
S11310F0D9F14DC0203B51F020F4203709F449C008
S113110007C0203D39F0203E39F002C089E348C0D1
S113111080E046C088E344C087E342C0203B49F0F6
S113112018F42037C1F107C0203D39F0203E39F0D2
S113113002C086E335C080E033C085E331C084E378
S11311402FC0203B49F018F4203739F107C0203D67
S113115039F0203E39F002C083E322C080E020C091
S113116082E31EC081E31CC0203B49F018F4203701
S1131170B1F007C0203D39F0203E39F002C08DE3C4
S11311800FC080E00DC080E30BC083E409C080E0A1
S113119007C085E405C081E403C082E401C08BE29A
S11311A0DF91CF911F91FF90EF90DF90CF90AF90A0
S11311B09F908F907F906F905F904F900895C79805
S11311C088230CF4C79AC69886FDC69AC59885FDEF
S11311D0C59AC49884FDC49AC19A0000C1980000BD
S11311E00895CF93C82FC09AC1980E94DF088C2F0E
S11311F08295807F0E94DF08CF9108950F931F93FB
S1131200CF93FC018081882379F08F01C0E00E9494
S1131210F108CF5F8AE18A95F1F700C0F801EC0F7D
S1131220F11D80818111F3CFCF911F910F9108950A
S1131230CF93C82FC098C1980E94DF088C2F829545
S1131240807F0E94DF08CF910895BF9ABE9ABD9A0D
S1131250BC9AB99AB89ABA9A87EA91E60197F1F7D3
S113126000C00000C098C19880E30E94DF0883ECAE
S113127099E00197F1F700C0000080E30E94DF08C5
S113128092E49A95F1F700C080E30E94DF0882E4BB
S11312908A95F1F700C088E20E94DF089AE19A95E6
S11312A0F1F700C088E20E9418098AE18A95F1F7F3
S11312B000C088E00E9418099AE19A95F1F700C0ED
S11312C081E00E94180987EE93E00197F1F700C0CE
S11312D0000086E00E9418099AE19A95F1F700C08F
S11312E08CE00E9418098AE18A95F1F700C00895FC
S11312F090E4699FB00111246068860F0E94180968
S113130080E18A95F1F700C0089581E00E941809F0
S113131083EF91E00197F1F700C000000895DB012D
S11313208F939F930E949F09BF91AF91A29F800DBD
S1131330911DA39F900DB29F900D112408950E94BA
S1131340F80AA59F900DB49F900DA49F800D911D48
S113135011240895DF93CF931F930F939A9DF02D3B
S1131360219FF00D8B9DF00D8A9DE02DF10D039FC3
S1131370F00D029FE00DF11D4E9DE00DF11D5E9DEF
S1131380F00D4F9DF00D7F936F93BF92AF925F93DB
S11313904F93D5010E94F80A8B01AC01D7010E943A
S11313A0F80AEB01E80FF91FD6010E94FA092F9100
S11313B03F91D6010E94F80AC60FD71FE81FF91FF4
S11313C0AF91BF910E94FA092F913F910E94F80AB0
S11313D0C60FD71FE81FF91FD6010E94F80AE60FAF
S11313E0F71F9801BE01CF0111240F911F91CF91D6
S11313F0DF9108950E94F80A460F571FC81FD91F8E
S113140008F431960895689401C0E894F92FF12BFB
S113141012F00C94370AA0E0B0E0E1E1FAE00C9499
S1131420A90A092E059422F40E94930A112392F426
S1131430F0E80F26FFEFE094F09400951095B09437
S1131440C094D094A194BF0ACF0ADF0AEF0AFF0A1E
S11314500F0B1F0B0E94420A07FC0E94930ACDB790
S1131460DEB7ECE00C94C50A689401C0E8948F924E
S11314709F92CF93DF930E94420ADF91CF919F9076
S11314808F90089588249924F401E401B0E49F9393
S1131490AA279A158B049C04ED05FE05CF05D007F9
S11314A0A10798F4AD2FDC2FCF2FFE2FE92D982C18
S11314B0892E982F872F762F652F542F432F322F65
S11314C02227B85031F7BF9127C01B2EBF91BB27ED
S11314D0220F331F441F551F661F771F881F991F34
S11314E0881C991CEE1FFF1FCC1FDD1FAA1FBB1FEA
S11314F08A149B04EC05FD05CE05DF05A007B107A2
S113150048F08A189B08EC09FD09CE09DF09A00BF5
S1131510B10B21601A94E1F62EF49401AF01BE01DF
S1131520CD01000C08956095709580959095309547
S11315304095509521953F4F4F4F5F4F6F4F7F4FD1
S11315408F4F9F4F08952F923F924F925F926F92C9
S11315507F928F929F92AF92BF92CF92DF92EF923F
S1131560FF920F931F93CF93DF93CDB7DEB7CA1BC0
S1131570DB0B0FB6F894DEBF0FBECDBF09942A88EB
S1131580398848885F846E847D848C849B84AA8493
S1131590B984C884DF80EE80FD800C811B81AA8120
S11315A0B981CE0FD11D0FB6F894DEBF0FBECDBFEB
S11315B0ED0108952A0D3B1D4C1D5D1D6E1D7F1D03
S11315C0801F911F08952A193B094C095D096E0972
S11315D07F09800B910B08950024A7FD00942A171E
S11315E03005400550056005700580059005089597
S11315F0A29FB001B39FC001A39F700D811D112450
S1131600911DB29F700D811D1124911D0895DC015F
S1131610FC01672F71917723E1F7329704C07C9125
S11316206D9370836291AE17BF07C8F30895F89461
S1051630FFCFE6
S11316324D415448204552524F52005052494F5244
S1131642495459204552524F5200556E697665727B
S113165273697479206F66204D6F72617475776156
S11316620047726F75702033302050726F6A656361
S113167274004175746F6D61746564206C61746586
S113168278206D69786572004B65797061642061B8
S11316926E642050482073656E736F7220627920E5
S11316A24E696D61736800456E7465722074686575
S11316B2204E756D626572206F6620547261797373
S11316C200456E7465722074686520566F6C756D82
S11116D265206F66207468652074726179006B
S9030000FC
